{
  "contractName": "SupplyChain",
  "abi": [
    {
      "anonymous": false,
      "inputs": [
        {
          "indexed": true,
          "internalType": "address",
          "name": "account",
          "type": "address"
        }
      ],
      "name": "ConsumerAdded",
      "type": "event"
    },
    {
      "anonymous": false,
      "inputs": [
        {
          "indexed": true,
          "internalType": "address",
          "name": "account",
          "type": "address"
        }
      ],
      "name": "ConsumerRemoved",
      "type": "event"
    },
    {
      "anonymous": false,
      "inputs": [
        {
          "indexed": true,
          "internalType": "address",
          "name": "account",
          "type": "address"
        }
      ],
      "name": "ConsumerReported",
      "type": "event"
    },
    {
      "anonymous": false,
      "inputs": [
        {
          "indexed": true,
          "internalType": "address",
          "name": "account",
          "type": "address"
        }
      ],
      "name": "ConsumerUnreported",
      "type": "event"
    },
    {
      "anonymous": false,
      "inputs": [
        {
          "indexed": true,
          "internalType": "address",
          "name": "account",
          "type": "address"
        }
      ],
      "name": "DistributorAdded",
      "type": "event"
    },
    {
      "anonymous": false,
      "inputs": [
        {
          "indexed": true,
          "internalType": "address",
          "name": "account",
          "type": "address"
        }
      ],
      "name": "DistributorRemoved",
      "type": "event"
    },
    {
      "anonymous": false,
      "inputs": [
        {
          "indexed": true,
          "internalType": "address",
          "name": "account",
          "type": "address"
        }
      ],
      "name": "DistributorReported",
      "type": "event"
    },
    {
      "anonymous": false,
      "inputs": [
        {
          "indexed": true,
          "internalType": "address",
          "name": "account",
          "type": "address"
        }
      ],
      "name": "DistributorUnreported",
      "type": "event"
    },
    {
      "anonymous": false,
      "inputs": [
        {
          "indexed": true,
          "internalType": "uint256",
          "name": "uin",
          "type": "uint256"
        },
        {
          "indexed": false,
          "internalType": "uint256",
          "name": "x",
          "type": "uint256"
        },
        {
          "indexed": true,
          "internalType": "address",
          "name": "y",
          "type": "address"
        },
        {
          "indexed": false,
          "internalType": "uint256",
          "name": "z",
          "type": "uint256"
        }
      ],
      "name": "ECollectibleForSaleByCustomer",
      "type": "event"
    },
    {
      "anonymous": false,
      "inputs": [
        {
          "indexed": true,
          "internalType": "uint256",
          "name": "uin",
          "type": "uint256"
        },
        {
          "indexed": false,
          "internalType": "uint256",
          "name": "x",
          "type": "uint256"
        },
        {
          "indexed": true,
          "internalType": "address",
          "name": "y",
          "type": "address"
        },
        {
          "indexed": false,
          "internalType": "uint256",
          "name": "z",
          "type": "uint256"
        }
      ],
      "name": "EForSaleByDistributor",
      "type": "event"
    },
    {
      "anonymous": false,
      "inputs": [
        {
          "indexed": true,
          "internalType": "uint256",
          "name": "uin",
          "type": "uint256"
        },
        {
          "indexed": false,
          "internalType": "uint256",
          "name": "x",
          "type": "uint256"
        },
        {
          "indexed": true,
          "internalType": "address",
          "name": "y",
          "type": "address"
        },
        {
          "indexed": false,
          "internalType": "uint256",
          "name": "z",
          "type": "uint256"
        }
      ],
      "name": "EForSaleByManufacturer",
      "type": "event"
    },
    {
      "anonymous": false,
      "inputs": [
        {
          "indexed": true,
          "internalType": "uint256",
          "name": "uin",
          "type": "uint256"
        },
        {
          "indexed": false,
          "internalType": "uint256",
          "name": "x",
          "type": "uint256"
        },
        {
          "indexed": true,
          "internalType": "address",
          "name": "y",
          "type": "address"
        },
        {
          "indexed": false,
          "internalType": "uint256",
          "name": "z",
          "type": "uint256"
        }
      ],
      "name": "EForSaleByRetailer",
      "type": "event"
    },
    {
      "anonymous": false,
      "inputs": [
        {
          "indexed": true,
          "internalType": "uint256",
          "name": "uin",
          "type": "uint256"
        },
        {
          "indexed": false,
          "internalType": "uint256",
          "name": "x",
          "type": "uint256"
        },
        {
          "indexed": true,
          "internalType": "address",
          "name": "y",
          "type": "address"
        }
      ],
      "name": "EProducedByManufacturer",
      "type": "event"
    },
    {
      "anonymous": false,
      "inputs": [
        {
          "indexed": true,
          "internalType": "uint256",
          "name": "uin",
          "type": "uint256"
        },
        {
          "indexed": false,
          "internalType": "uint256",
          "name": "x",
          "type": "uint256"
        },
        {
          "indexed": false,
          "internalType": "address",
          "name": "y",
          "type": "address"
        }
      ],
      "name": "EReceivedByCustomer",
      "type": "event"
    },
    {
      "anonymous": false,
      "inputs": [
        {
          "indexed": true,
          "internalType": "uint256",
          "name": "uin",
          "type": "uint256"
        },
        {
          "indexed": false,
          "internalType": "uint256",
          "name": "x",
          "type": "uint256"
        },
        {
          "indexed": true,
          "internalType": "address",
          "name": "y",
          "type": "address"
        }
      ],
      "name": "EReceivedByDistributor",
      "type": "event"
    },
    {
      "anonymous": false,
      "inputs": [
        {
          "indexed": true,
          "internalType": "uint256",
          "name": "uin",
          "type": "uint256"
        },
        {
          "indexed": false,
          "internalType": "uint256",
          "name": "x",
          "type": "uint256"
        },
        {
          "indexed": false,
          "internalType": "address",
          "name": "y",
          "type": "address"
        }
      ],
      "name": "EReceivedByRetailer",
      "type": "event"
    },
    {
      "anonymous": false,
      "inputs": [
        {
          "indexed": true,
          "internalType": "uint256",
          "name": "uin",
          "type": "uint256"
        },
        {
          "indexed": false,
          "internalType": "uint256",
          "name": "x",
          "type": "uint256"
        },
        {
          "indexed": true,
          "internalType": "address",
          "name": "y",
          "type": "address"
        }
      ],
      "name": "EReceivedCollectibleByCustomer",
      "type": "event"
    },
    {
      "anonymous": false,
      "inputs": [
        {
          "indexed": true,
          "internalType": "uint256",
          "name": "uin",
          "type": "uint256"
        },
        {
          "indexed": false,
          "internalType": "uint256",
          "name": "x",
          "type": "uint256"
        },
        {
          "indexed": true,
          "internalType": "address",
          "name": "y",
          "type": "address"
        },
        {
          "indexed": true,
          "internalType": "address",
          "name": "z",
          "type": "address"
        }
      ],
      "name": "EShippedByDistributor",
      "type": "event"
    },
    {
      "anonymous": false,
      "inputs": [
        {
          "indexed": true,
          "internalType": "uint256",
          "name": "uin",
          "type": "uint256"
        },
        {
          "indexed": false,
          "internalType": "uint256",
          "name": "x",
          "type": "uint256"
        },
        {
          "indexed": true,
          "internalType": "address",
          "name": "y",
          "type": "address"
        },
        {
          "indexed": true,
          "internalType": "address",
          "name": "z",
          "type": "address"
        }
      ],
      "name": "EShippedByManufacturer",
      "type": "event"
    },
    {
      "anonymous": false,
      "inputs": [
        {
          "indexed": true,
          "internalType": "uint256",
          "name": "uin",
          "type": "uint256"
        },
        {
          "indexed": false,
          "internalType": "uint256",
          "name": "x",
          "type": "uint256"
        },
        {
          "indexed": true,
          "internalType": "address",
          "name": "y",
          "type": "address"
        },
        {
          "indexed": true,
          "internalType": "address",
          "name": "z",
          "type": "address"
        }
      ],
      "name": "EShippedByRetailer",
      "type": "event"
    },
    {
      "anonymous": false,
      "inputs": [
        {
          "indexed": true,
          "internalType": "uint256",
          "name": "uin",
          "type": "uint256"
        },
        {
          "indexed": false,
          "internalType": "uint256",
          "name": "x",
          "type": "uint256"
        },
        {
          "indexed": true,
          "internalType": "address",
          "name": "y",
          "type": "address"
        },
        {
          "indexed": true,
          "internalType": "address",
          "name": "z",
          "type": "address"
        }
      ],
      "name": "EShippedtheCollectibleByCustomer",
      "type": "event"
    },
    {
      "anonymous": false,
      "inputs": [
        {
          "indexed": true,
          "internalType": "address",
          "name": "account",
          "type": "address"
        }
      ],
      "name": "ManufacturerAdded",
      "type": "event"
    },
    {
      "anonymous": false,
      "inputs": [
        {
          "indexed": true,
          "internalType": "address",
          "name": "account",
          "type": "address"
        }
      ],
      "name": "ManufacturerRemoved",
      "type": "event"
    },
    {
      "anonymous": false,
      "inputs": [
        {
          "indexed": true,
          "internalType": "address",
          "name": "account",
          "type": "address"
        }
      ],
      "name": "ManufacturerReported",
      "type": "event"
    },
    {
      "anonymous": false,
      "inputs": [
        {
          "indexed": true,
          "internalType": "address",
          "name": "account",
          "type": "address"
        }
      ],
      "name": "ManufacturerUnreported",
      "type": "event"
    },
    {
      "anonymous": false,
      "inputs": [
        {
          "indexed": true,
          "internalType": "address",
          "name": "account",
          "type": "address"
        }
      ],
      "name": "RetailerAdded",
      "type": "event"
    },
    {
      "anonymous": false,
      "inputs": [
        {
          "indexed": true,
          "internalType": "address",
          "name": "account",
          "type": "address"
        }
      ],
      "name": "RetailerRemoved",
      "type": "event"
    },
    {
      "anonymous": false,
      "inputs": [
        {
          "indexed": true,
          "internalType": "address",
          "name": "account",
          "type": "address"
        }
      ],
      "name": "RetailerReported",
      "type": "event"
    },
    {
      "anonymous": false,
      "inputs": [
        {
          "indexed": true,
          "internalType": "address",
          "name": "account",
          "type": "address"
        }
      ],
      "name": "RetailerUnreported",
      "type": "event"
    },
    {
      "inputs": [
        {
          "internalType": "address",
          "name": "account",
          "type": "address"
        }
      ],
      "name": "addConsumer",
      "outputs": [],
      "stateMutability": "nonpayable",
      "type": "function"
    },
    {
      "inputs": [
        {
          "internalType": "address",
          "name": "account",
          "type": "address"
        }
      ],
      "name": "addDistributor",
      "outputs": [],
      "stateMutability": "nonpayable",
      "type": "function"
    },
    {
      "inputs": [
        {
          "internalType": "address",
          "name": "account",
          "type": "address"
        }
      ],
      "name": "addManufacturer",
      "outputs": [],
      "stateMutability": "nonpayable",
      "type": "function"
    },
    {
      "inputs": [
        {
          "internalType": "address",
          "name": "account",
          "type": "address"
        }
      ],
      "name": "addRetailer",
      "outputs": [],
      "stateMutability": "nonpayable",
      "type": "function"
    },
    {
      "inputs": [
        {
          "internalType": "address",
          "name": "account",
          "type": "address"
        }
      ],
      "name": "isConsumer",
      "outputs": [
        {
          "internalType": "bool",
          "name": "",
          "type": "bool"
        }
      ],
      "stateMutability": "view",
      "type": "function",
      "constant": true
    },
    {
      "inputs": [
        {
          "internalType": "address",
          "name": "account",
          "type": "address"
        }
      ],
      "name": "isDistributor",
      "outputs": [
        {
          "internalType": "bool",
          "name": "",
          "type": "bool"
        }
      ],
      "stateMutability": "view",
      "type": "function",
      "constant": true
    },
    {
      "inputs": [
        {
          "internalType": "address",
          "name": "account",
          "type": "address"
        }
      ],
      "name": "isManufacturer",
      "outputs": [
        {
          "internalType": "bool",
          "name": "",
          "type": "bool"
        }
      ],
      "stateMutability": "view",
      "type": "function",
      "constant": true
    },
    {
      "inputs": [
        {
          "internalType": "address",
          "name": "account",
          "type": "address"
        }
      ],
      "name": "isRetailer",
      "outputs": [
        {
          "internalType": "bool",
          "name": "",
          "type": "bool"
        }
      ],
      "stateMutability": "view",
      "type": "function",
      "constant": true
    },
    {
      "inputs": [
        {
          "internalType": "address",
          "name": "account",
          "type": "address"
        }
      ],
      "name": "reportConsumer",
      "outputs": [],
      "stateMutability": "nonpayable",
      "type": "function"
    },
    {
      "inputs": [
        {
          "internalType": "address",
          "name": "account",
          "type": "address"
        }
      ],
      "name": "reportDistributor",
      "outputs": [],
      "stateMutability": "nonpayable",
      "type": "function"
    },
    {
      "inputs": [
        {
          "internalType": "address",
          "name": "account",
          "type": "address"
        }
      ],
      "name": "reportManufacturer",
      "outputs": [],
      "stateMutability": "nonpayable",
      "type": "function"
    },
    {
      "inputs": [
        {
          "internalType": "address",
          "name": "account",
          "type": "address"
        }
      ],
      "name": "reportRetailer",
      "outputs": [],
      "stateMutability": "nonpayable",
      "type": "function"
    },
    {
      "inputs": [
        {
          "internalType": "address",
          "name": "account",
          "type": "address"
        }
      ],
      "name": "unreportConsumer",
      "outputs": [],
      "stateMutability": "nonpayable",
      "type": "function"
    },
    {
      "inputs": [
        {
          "internalType": "address",
          "name": "account",
          "type": "address"
        }
      ],
      "name": "unreportDistributor",
      "outputs": [],
      "stateMutability": "nonpayable",
      "type": "function"
    },
    {
      "inputs": [
        {
          "internalType": "address",
          "name": "account",
          "type": "address"
        }
      ],
      "name": "unreportManufacturer",
      "outputs": [],
      "stateMutability": "nonpayable",
      "type": "function"
    },
    {
      "inputs": [
        {
          "internalType": "address",
          "name": "account",
          "type": "address"
        }
      ],
      "name": "unreportRetailer",
      "outputs": [],
      "stateMutability": "nonpayable",
      "type": "function"
    },
    {
      "inputs": [
        {
          "internalType": "string",
          "name": "_ProductName",
          "type": "string"
        },
        {
          "internalType": "string",
          "name": "_ProductDesc",
          "type": "string"
        },
        {
          "internalType": "string",
          "name": "_ProductType",
          "type": "string"
        },
        {
          "internalType": "bool",
          "name": "_collectible",
          "type": "bool"
        },
        {
          "internalType": "uint256",
          "name": "weight",
          "type": "uint256"
        }
      ],
      "name": "producebymanufacturer",
      "outputs": [
        {
          "internalType": "uint256",
          "name": "",
          "type": "uint256"
        }
      ],
      "stateMutability": "nonpayable",
      "type": "function"
    },
    {
      "inputs": [
        {
          "internalType": "uint256",
          "name": "uin",
          "type": "uint256"
        },
        {
          "internalType": "uint256",
          "name": "price",
          "type": "uint256"
        }
      ],
      "name": "forsalebymanufacturer",
      "outputs": [],
      "stateMutability": "nonpayable",
      "type": "function"
    },
    {
      "inputs": [
        {
          "internalType": "uint256",
          "name": "uin",
          "type": "uint256"
        },
        {
          "internalType": "address payable",
          "name": "shipTo",
          "type": "address"
        }
      ],
      "name": "shippedbymanufacturer",
      "outputs": [],
      "stateMutability": "nonpayable",
      "type": "function"
    },
    {
      "inputs": [
        {
          "internalType": "uint256",
          "name": "uin",
          "type": "uint256"
        }
      ],
      "name": "receivedbydistributor",
      "outputs": [],
      "stateMutability": "payable",
      "type": "function",
      "payable": true
    },
    {
      "inputs": [
        {
          "internalType": "uint256",
          "name": "uin",
          "type": "uint256"
        },
        {
          "internalType": "uint256",
          "name": "price",
          "type": "uint256"
        }
      ],
      "name": "forsalebydistributor",
      "outputs": [],
      "stateMutability": "nonpayable",
      "type": "function"
    },
    {
      "inputs": [
        {
          "internalType": "uint256",
          "name": "uin",
          "type": "uint256"
        },
        {
          "internalType": "address payable",
          "name": "shipTo",
          "type": "address"
        }
      ],
      "name": "shippedbydistributor",
      "outputs": [],
      "stateMutability": "nonpayable",
      "type": "function"
    },
    {
      "inputs": [
        {
          "internalType": "uint256",
          "name": "uin",
          "type": "uint256"
        }
      ],
      "name": "receivedbyretailer",
      "outputs": [],
      "stateMutability": "payable",
      "type": "function",
      "payable": true
    },
    {
      "inputs": [
        {
          "internalType": "uint256",
          "name": "uin",
          "type": "uint256"
        },
        {
          "internalType": "uint256",
          "name": "price",
          "type": "uint256"
        }
      ],
      "name": "forsalebyretailer",
      "outputs": [],
      "stateMutability": "nonpayable",
      "type": "function"
    },
    {
      "inputs": [
        {
          "internalType": "uint256",
          "name": "uin",
          "type": "uint256"
        },
        {
          "internalType": "address payable",
          "name": "shipTo",
          "type": "address"
        }
      ],
      "name": "shippedbyretailer",
      "outputs": [],
      "stateMutability": "nonpayable",
      "type": "function"
    },
    {
      "inputs": [
        {
          "internalType": "uint256",
          "name": "uin",
          "type": "uint256"
        }
      ],
      "name": "receivedbycustomer",
      "outputs": [],
      "stateMutability": "payable",
      "type": "function",
      "payable": true
    },
    {
      "inputs": [
        {
          "internalType": "uint256",
          "name": "uin",
          "type": "uint256"
        },
        {
          "internalType": "uint256",
          "name": "price",
          "type": "uint256"
        }
      ],
      "name": "collectibleforsalebycustomer",
      "outputs": [],
      "stateMutability": "nonpayable",
      "type": "function"
    },
    {
      "inputs": [
        {
          "internalType": "uint256",
          "name": "uin",
          "type": "uint256"
        },
        {
          "internalType": "address payable",
          "name": "ShipTo",
          "type": "address"
        }
      ],
      "name": "shippedcollectiblebycustomer",
      "outputs": [],
      "stateMutability": "nonpayable",
      "type": "function"
    },
    {
      "inputs": [
        {
          "internalType": "uint256",
          "name": "uin",
          "type": "uint256"
        }
      ],
      "name": "receivedcollectiblebycustomer",
      "outputs": [],
      "stateMutability": "payable",
      "type": "function",
      "payable": true
    },
    {
      "inputs": [
        {
          "internalType": "uint256",
          "name": "uin",
          "type": "uint256"
        }
      ],
      "name": "productDetail",
      "outputs": [
        {
          "internalType": "uint256",
          "name": "",
          "type": "uint256"
        },
        {
          "internalType": "string",
          "name": "",
          "type": "string"
        },
        {
          "internalType": "string",
          "name": "",
          "type": "string"
        },
        {
          "internalType": "address",
          "name": "",
          "type": "address"
        },
        {
          "internalType": "address",
          "name": "",
          "type": "address"
        },
        {
          "internalType": "uint256",
          "name": "",
          "type": "uint256"
        },
        {
          "internalType": "uint256",
          "name": "",
          "type": "uint256"
        }
      ],
      "stateMutability": "view",
      "type": "function",
      "constant": true
    },
    {
      "inputs": [
        {
          "internalType": "address",
          "name": "z",
          "type": "address"
        }
      ],
      "name": "x",
      "outputs": [
        {
          "components": [
            {
              "internalType": "uint256",
              "name": "uin",
              "type": "uint256"
            },
            {
              "internalType": "string",
              "name": "productName",
              "type": "string"
            },
            {
              "internalType": "string",
              "name": "productType",
              "type": "string"
            },
            {
              "internalType": "string",
              "name": "productDescription",
              "type": "string"
            },
            {
              "internalType": "address payable",
              "name": "manufacturerId",
              "type": "address"
            },
            {
              "internalType": "address payable",
              "name": "CurrentOwner",
              "type": "address"
            },
            {
              "internalType": "address payable",
              "name": "ShipTo",
              "type": "address"
            },
            {
              "internalType": "uint256",
              "name": "productDate",
              "type": "uint256"
            },
            {
              "internalType": "bool",
              "name": "collectible",
              "type": "bool"
            },
            {
              "internalType": "bool",
              "name": "composite",
              "type": "bool"
            },
            {
              "internalType": "bool",
              "name": "visibility",
              "type": "bool"
            },
            {
              "internalType": "uint256",
              "name": "weight",
              "type": "uint256"
            },
            {
              "internalType": "uint256",
              "name": "productPrice",
              "type": "uint256"
            },
            {
              "internalType": "uint256",
              "name": "productHash",
              "type": "uint256"
            },
            {
              "internalType": "enum SupplyChain.State",
              "name": "productState",
              "type": "uint8"
            }
          ],
          "internalType": "struct SupplyChain.Item[]",
          "name": "",
          "type": "tuple[]"
        }
      ],
      "stateMutability": "view",
      "type": "function",
      "constant": true
    },
    {
      "inputs": [
        {
          "internalType": "address",
          "name": "z",
          "type": "address"
        }
      ],
      "name": "y",
      "outputs": [
        {
          "components": [
            {
              "internalType": "uint256",
              "name": "uin",
              "type": "uint256"
            },
            {
              "internalType": "string",
              "name": "productName",
              "type": "string"
            },
            {
              "internalType": "string",
              "name": "productType",
              "type": "string"
            },
            {
              "internalType": "string",
              "name": "productDescription",
              "type": "string"
            },
            {
              "internalType": "address payable",
              "name": "manufacturerId",
              "type": "address"
            },
            {
              "internalType": "address payable",
              "name": "CurrentOwner",
              "type": "address"
            },
            {
              "internalType": "address payable",
              "name": "ShipTo",
              "type": "address"
            },
            {
              "internalType": "uint256",
              "name": "productDate",
              "type": "uint256"
            },
            {
              "internalType": "bool",
              "name": "collectible",
              "type": "bool"
            },
            {
              "internalType": "bool",
              "name": "composite",
              "type": "bool"
            },
            {
              "internalType": "bool",
              "name": "visibility",
              "type": "bool"
            },
            {
              "internalType": "uint256",
              "name": "weight",
              "type": "uint256"
            },
            {
              "internalType": "uint256",
              "name": "productPrice",
              "type": "uint256"
            },
            {
              "internalType": "uint256",
              "name": "productHash",
              "type": "uint256"
            },
            {
              "internalType": "enum SupplyChain.State",
              "name": "productState",
              "type": "uint8"
            }
          ],
          "internalType": "struct SupplyChain.Item[]",
          "name": "",
          "type": "tuple[]"
        }
      ],
      "stateMutability": "view",
      "type": "function",
      "constant": true
    }
  ],
  "bytecode": "0x60806040526000600d5534801561001557600080fd5b50336000806101000a81548173ffffffffffffffffffffffffffffffffffffffff021916908373ffffffffffffffffffffffffffffffffffffffff160217905550615544806100656000396000f3fe6080604052600436106101e35760003560e01c80638ec4f50511610102578063b4bdb42511610095578063ee6197cb11610064578063ee6197cb146106ae578063f037e4e3146106d7578063f1b7f9ce14610714578063f8bd330b14610751576101e3565b8063b4bdb42514610603578063c97128cb1461062c578063d9589fd114610669578063e4e376a414610685576101e3565b80639e76a293116100d15780639e76a2931461055f578063a3cb25e114610588578063a4b2e157146105b1578063b2c89009146105da576101e3565b80638ec4f505146104c15780638f0c86fa146104ea57806393318297146105275780639896879414610543576101e3565b806352931de81161017a5780637250e224116101495780637250e2241461040957806375dcdeb11461043257806381d2e95c1461045b578063834ff73914610484576101e3565b806352931de81461035e57806355cf64b4146103875780635da09b88146103a35780635f8a5afa146103e0576101e3565b8063250bb38c116101b6578063250bb38c146102a05780632b182379146102c95780632c5ee9bf146102f257806342f358851461031b576101e3565b806301b8a64e146101e85780630fd22c8414610211578063112940f91461023a57806317d4a49114610263575b600080fd5b3480156101f457600080fd5b5061020f600480360381019061020a91906148a6565b61077a565b005b34801561021d57600080fd5b5061023860048036038101906102339190614944565b610893565b005b34801561024657600080fd5b50610261600480360381019061025c9190614944565b61089f565b005b34801561026f57600080fd5b5061028a60048036038101906102859190614944565b610903565b604051610297919061498c565b60405180910390f35b3480156102ac57600080fd5b506102c760048036038101906102c291906149e5565b610920565b005b3480156102d557600080fd5b506102f060048036038101906102eb91906149e5565b610bf2565b005b3480156102fe57600080fd5b5061031960048036038101906103149190614944565b610ec4565b005b34801561032757600080fd5b50610342600480360381019061033d9190614a25565b610ed0565b6040516103559796959493929190614b09565b60405180910390f35b34801561036a57600080fd5b5061038560048036038101906103809190614944565b6110eb565b005b6103a1600480360381019061039c9190614a25565b6110f7565b005b3480156103af57600080fd5b506103ca60048036038101906103c59190614944565b611577565b6040516103d7919061498c565b60405180910390f35b3480156103ec57600080fd5b5061040760048036038101906104029190614944565b611594565b005b34801561041557600080fd5b50610430600480360381019061042b9190614944565b6115f8565b005b34801561043e57600080fd5b5061045960048036038101906104549190614944565b61165c565b005b34801561046757600080fd5b50610482600480360381019061047d9190614944565b611668565b005b34801561049057600080fd5b506104ab60048036038101906104a69190614944565b611674565b6040516104b8919061498c565b60405180910390f35b3480156104cd57600080fd5b506104e860048036038101906104e39190614944565b611691565b005b3480156104f657600080fd5b50610511600480360381019061050c9190614944565b6116f5565b60405161051e919061498c565b60405180910390f35b610541600480360381019061053c9190614a25565b611712565b005b61055d60048036038101906105589190614a25565b611bc8565b005b34801561056b57600080fd5b50610586600480360381019061058191906149e5565b612033565b005b34801561059457600080fd5b506105af60048036038101906105aa9190614944565b612305565b005b3480156105bd57600080fd5b506105d860048036038101906105d391906148a6565b612311565b005b3480156105e657600080fd5b5061060160048036038101906105fc91906148a6565b612459565b005b34801561060f57600080fd5b5061062a600480360381019061062591906148a6565b6125d6565b005b34801561063857600080fd5b50610653600480360381019061064e9190614944565b61271e565b6040516106609190614e87565b60405180910390f35b610683600480360381019061067e9190614a25565b612c41565b005b34801561069157600080fd5b506106ac60048036038101906106a79190614944565b6130ac565b005b3480156106ba57600080fd5b506106d560048036038101906106d091906149e5565b6130b8565b005b3480156106e357600080fd5b506106fe60048036038101906106f99190614944565b61338a565b60405161070b9190614e87565b60405180910390f35b34801561072057600080fd5b5061073b6004803603810190610736919061500a565b6138ad565b60405161074891906150d9565b60405180910390f35b34801561075d57600080fd5b5061077860048036038101906107739190614944565b613cc1565b005b3361078481611577565b61078d57600080fd5b826006600c8111156107a2576107a1614c29565b5b600a6000838152602001908152602001600020600c0160009054906101000a900460ff16600c8111156107d8576107d7614c29565b5b146107e257600080fd5b6007600a6000868152602001908152602001600020600c0160006101000a81548160ff0219169083600c81111561081c5761081b614c29565b5b021790555082600a6000868152602001908152602001600020600a01819055503373ffffffffffffffffffffffffffffffffffffffff16847f5deefb19e7e549a7e04121977fe61c27d9d2842fe25f92cec6ab2d9dfbb8cffe42866040516108859291906150f4565b60405180910390a350505050565b61089c81613ccd565b50565b3373ffffffffffffffffffffffffffffffffffffffff1660008054906101000a900473ffffffffffffffffffffffffffffffffffffffff1673ffffffffffffffffffffffffffffffffffffffff16146108f757600080fd5b61090081613d27565b50565b6000610919826005613d8190919063ffffffff16565b9050919050565b3361092a81611674565b61093357600080fd5b8161093d81611674565b61094657600080fd5b83600a600c81111561095b5761095a614c29565b5b600a6000838152602001908152602001600020600c0160009054906101000a900460ff16600c81111561099157610990614c29565b5b1461099b57600080fd5b600b600a6000878152602001908152602001600020600c0160006101000a81548160ff0219169083600c8111156109d5576109d4614c29565b5b021790555083600a600087815260200190815260200160002060060160006101000a81548173ffffffffffffffffffffffffffffffffffffffff021916908373ffffffffffffffffffffffffffffffffffffffff160217905550600c60008573ffffffffffffffffffffffffffffffffffffffff1673ffffffffffffffffffffffffffffffffffffffff1681526020019081526020016000206000016000815480929190610a829061514c565b9190505550600c60008573ffffffffffffffffffffffffffffffffffffffff1673ffffffffffffffffffffffffffffffffffffffff16815260200190815260200160002060010185908060018154018082558091505060019003906000526020600020016000909190919091505584600a600087815260200190815260200160002060050160009054906101000a900473ffffffffffffffffffffffffffffffffffffffff1685600a6000898152602001908152602001600020600101604051602001610b5294939291906152fe565b6040516020818303038152906040528051906020012060001c600a6000878152602001908152602001600020600b01819055508373ffffffffffffffffffffffffffffffffffffffff163373ffffffffffffffffffffffffffffffffffffffff16867fc188b500118c60ef4779ac03c68763ffbdb2be1f6c016872c9e9db545cd7c92f42604051610be391906150d9565b60405180910390a45050505050565b33610bfc81611577565b610c0557600080fd5b81610c0f81611674565b610c1857600080fd5b836007600c811115610c2d57610c2c614c29565b5b600a6000838152602001908152602001600020600c0160009054906101000a900460ff16600c811115610c6357610c62614c29565b5b14610c6d57600080fd5b6008600a6000878152602001908152602001600020600c0160006101000a81548160ff0219169083600c811115610ca757610ca6614c29565b5b021790555083600a600087815260200190815260200160002060060160006101000a81548173ffffffffffffffffffffffffffffffffffffffff021916908373ffffffffffffffffffffffffffffffffffffffff160217905550600c60008573ffffffffffffffffffffffffffffffffffffffff1673ffffffffffffffffffffffffffffffffffffffff1681526020019081526020016000206000016000815480929190610d549061514c565b9190505550600c60008573ffffffffffffffffffffffffffffffffffffffff1673ffffffffffffffffffffffffffffffffffffffff16815260200190815260200160002060010185908060018154018082558091505060019003906000526020600020016000909190919091505584600a600087815260200190815260200160002060050160009054906101000a900473ffffffffffffffffffffffffffffffffffffffff1685600a6000898152602001908152602001600020600101604051602001610e2494939291906152fe565b6040516020818303038152906040528051906020012060001c600a6000878152602001908152602001600020600b01819055508373ffffffffffffffffffffffffffffffffffffffff163373ffffffffffffffffffffffffffffffffffffffff16867fff4edcb43f0794bbff4e154b1d284970e59c24e8100f6439c1cecaf0b87eb09042604051610eb591906150d9565b60405180910390a45050505050565b610ecd81613e13565b50565b6000606080600080600080600a600089815260200190815260200160002060000154600a60008a8152602001908152602001600020600101600a60008b8152602001908152602001600020600301600a60008c815260200190815260200160002060040160009054906101000a900473ffffffffffffffffffffffffffffffffffffffff16600a60008d815260200190815260200160002060050160009054906101000a900473ffffffffffffffffffffffffffffffffffffffff16600a60008e815260200190815260200160002060070154600a60008f8152602001908152602001600020600a0154858054610fc69061522d565b80601f0160208091040260200160405190810160405280929190818152602001828054610ff29061522d565b801561103f5780601f106110145761010080835404028352916020019161103f565b820191906000526020600020905b81548152906001019060200180831161102257829003601f168201915b505050505095508480546110529061522d565b80601f016020809104026020016040519081016040528092919081815260200182805461107e9061522d565b80156110cb5780601f106110a0576101008083540402835291602001916110cb565b820191906000526020600020905b8154815290600101906020018083116110ae57829003601f168201915b505050505094509650965096509650965096509650919395979092949650565b6110f481613e6d565b50565b33611101816116f5565b61110a57600080fd5b600a6000838152602001908152602001600020600a01548034101561112e57600080fd5b826002600c81111561114357611142614c29565b5b600a6000838152602001908152602001600020600c0160009054906101000a900460ff16600c81111561117957611178614c29565b5b1461118357600080fd5b8380600a600083815260200190815260200160002060050160009054906101000a900473ffffffffffffffffffffffffffffffffffffffff1633600a60008581526020019081526020016000206001016040516020016111e69493929190615371565b6040516020818303038152906040528051906020012060001c600a6000838152602001908152602001600020600b01541461122057600080fd5b6003600a6000878152602001908152602001600020600c0160006101000a81548160ff0219169083600c81111561125a57611259614c29565b5b02179055506000600a600087815260200190815260200160002060080160026101000a81548160ff021916908315150217905550600a600086815260200190815260200160002060050160009054906101000a900473ffffffffffffffffffffffffffffffffffffffff1673ffffffffffffffffffffffffffffffffffffffff166108fc600a6000888152602001908152602001600020600a01549081150290604051600060405180830381858888f19350505050158015611320573d6000803e3d6000fd5b5061136185600a600088815260200190815260200160002060050160009054906101000a900473ffffffffffffffffffffffffffffffffffffffff16613ec7565b600b6000600a600088815260200190815260200160002060050160009054906101000a900473ffffffffffffffffffffffffffffffffffffffff1673ffffffffffffffffffffffffffffffffffffffff1673ffffffffffffffffffffffffffffffffffffffff16815260200190815260200160002060000160008154809291906113ea906153bb565b919050555033600a600087815260200190815260200160002060050160006101000a81548173ffffffffffffffffffffffffffffffffffffffff021916908373ffffffffffffffffffffffffffffffffffffffff1602179055506000600a6000878152602001908152602001600020600a0181905550600b60003373ffffffffffffffffffffffffffffffffffffffff1673ffffffffffffffffffffffffffffffffffffffff16815260200190815260200160002060000160008154809291906114b39061514c565b9190505550600b60003373ffffffffffffffffffffffffffffffffffffffff1673ffffffffffffffffffffffffffffffffffffffff1681526020019081526020016000206001018590806001815401808255809150506001900390600052602060002001600090919091909150553373ffffffffffffffffffffffffffffffffffffffff16857f28d2d7e57b87b5cd5e17a265773ce73b97b3d2e4595bc6239f69bb0915536d594260405161156891906150d9565b60405180910390a35050505050565b600061158d826001613d8190919063ffffffff16565b9050919050565b3373ffffffffffffffffffffffffffffffffffffffff1660008054906101000a900473ffffffffffffffffffffffffffffffffffffffff1673ffffffffffffffffffffffffffffffffffffffff16146115ec57600080fd5b6115f58161415f565b50565b3373ffffffffffffffffffffffffffffffffffffffff1660008054906101000a900473ffffffffffffffffffffffffffffffffffffffff1673ffffffffffffffffffffffffffffffffffffffff161461165057600080fd5b611659816141b9565b50565b61166581614213565b50565b6116718161426d565b50565b600061168a826003613d8190919063ffffffff16565b9050919050565b3373ffffffffffffffffffffffffffffffffffffffff1660008054906101000a900473ffffffffffffffffffffffffffffffffffffffff1673ffffffffffffffffffffffffffffffffffffffff16146116e957600080fd5b6116f2816142c7565b50565b600061170b826007613d8190919063ffffffff16565b9050919050565b3361171c81611674565b61172557600080fd5b8160011515600a600083815260200190815260200160002060080160009054906101000a900460ff1615151461175a57600080fd5b600a6000848152602001908152602001600020600a01548034101561177e57600080fd5b83600b600c81111561179357611792614c29565b5b600a6000838152602001908152602001600020600c0160009054906101000a900460ff16600c8111156117c9576117c8614c29565b5b146117d357600080fd5b8480600a600083815260200190815260200160002060050160009054906101000a900473ffffffffffffffffffffffffffffffffffffffff1633600a60008581526020019081526020016000206001016040516020016118369493929190615371565b6040516020818303038152906040528051906020012060001c600a6000838152602001908152602001600020600b01541461187057600080fd5b600c600a6000888152602001908152602001600020600c0160006101000a81548160ff0219169083600c8111156118aa576118a9614c29565b5b02179055506000600a600088815260200190815260200160002060080160026101000a81548160ff021916908315150217905550600a600087815260200190815260200160002060050160009054906101000a900473ffffffffffffffffffffffffffffffffffffffff1673ffffffffffffffffffffffffffffffffffffffff166108fc600a6000898152602001908152602001600020600a01549081150290604051600060405180830381858888f19350505050158015611970573d6000803e3d6000fd5b50600b6000600a600089815260200190815260200160002060050160009054906101000a900473ffffffffffffffffffffffffffffffffffffffff1673ffffffffffffffffffffffffffffffffffffffff1673ffffffffffffffffffffffffffffffffffffffff16815260200190815260200160002060000160008154809291906119fa906153bb565b9190505550611a3f86600a600089815260200190815260200160002060050160009054906101000a900473ffffffffffffffffffffffffffffffffffffffff16613ec7565b33600a600088815260200190815260200160002060050160006101000a81548173ffffffffffffffffffffffffffffffffffffffff021916908373ffffffffffffffffffffffffffffffffffffffff1602179055506000600a6000888152602001908152602001600020600a0181905550600b60003373ffffffffffffffffffffffffffffffffffffffff1673ffffffffffffffffffffffffffffffffffffffff1681526020019081526020016000206000016000815480929190611b039061514c565b9190505550600b60003373ffffffffffffffffffffffffffffffffffffffff1673ffffffffffffffffffffffffffffffffffffffff1681526020019081526020016000206001018690806001815401808255809150506001900390600052602060002001600090919091909150553373ffffffffffffffffffffffffffffffffffffffff16867fab24060fff978f4fefd01f7c5907e6b14f60d643e4c578a1cc8b17299cff134042604051611bb891906150d9565b60405180910390a3505050505050565b33611bd281611674565b611bdb57600080fd5b600a6000838152602001908152602001600020600a015480341015611bff57600080fd5b826008600c811115611c1457611c13614c29565b5b600a6000838152602001908152602001600020600c0160009054906101000a900460ff16600c811115611c4a57611c49614c29565b5b14611c5457600080fd5b8380600a600083815260200190815260200160002060050160009054906101000a900473ffffffffffffffffffffffffffffffffffffffff1633600a6000858152602001908152602001600020600101604051602001611cb79493929190615371565b6040516020818303038152906040528051906020012060001c600a6000838152602001908152602001600020600b015414611cf157600080fd5b6009600a6000878152602001908152602001600020600c0160006101000a81548160ff0219169083600c811115611d2b57611d2a614c29565b5b02179055506000600a600087815260200190815260200160002060080160026101000a81548160ff021916908315150217905550600a600086815260200190815260200160002060050160009054906101000a900473ffffffffffffffffffffffffffffffffffffffff1673ffffffffffffffffffffffffffffffffffffffff166108fc600a6000888152602001908152602001600020600a01549081150290604051600060405180830381858888f19350505050158015611df1573d6000803e3d6000fd5b50600b6000600a600088815260200190815260200160002060050160009054906101000a900473ffffffffffffffffffffffffffffffffffffffff1673ffffffffffffffffffffffffffffffffffffffff1673ffffffffffffffffffffffffffffffffffffffff1681526020019081526020016000206000016000815480929190611e7b906153bb565b9190505550611ec085600a600088815260200190815260200160002060050160009054906101000a900473ffffffffffffffffffffffffffffffffffffffff16613ec7565b33600a600087815260200190815260200160002060050160006101000a81548173ffffffffffffffffffffffffffffffffffffffff021916908373ffffffffffffffffffffffffffffffffffffffff1602179055506000600a6000878152602001908152602001600020600a0181905550600b60003373ffffffffffffffffffffffffffffffffffffffff1673ffffffffffffffffffffffffffffffffffffffff1681526020019081526020016000206000016000815480929190611f849061514c565b9190505550600b60003373ffffffffffffffffffffffffffffffffffffffff1673ffffffffffffffffffffffffffffffffffffffff168152602001908152602001600020600101859080600181540180825580915050600190039060005260206000200160009091909190915055847f0d607424e7c8d7272e3adc76ab8e220c0de7a8c179d358e62ac8b7b22a55792242336040516120249291906153e5565b60405180910390a25050505050565b3361203d81610903565b61204657600080fd5b81612050816116f5565b61205957600080fd5b836001600c81111561206e5761206d614c29565b5b600a6000838152602001908152602001600020600c0160009054906101000a900460ff16600c8111156120a4576120a3614c29565b5b146120ae57600080fd5b6002600a6000878152602001908152602001600020600c0160006101000a81548160ff0219169083600c8111156120e8576120e7614c29565b5b021790555083600a600087815260200190815260200160002060060160006101000a81548173ffffffffffffffffffffffffffffffffffffffff021916908373ffffffffffffffffffffffffffffffffffffffff160217905550600c60008573ffffffffffffffffffffffffffffffffffffffff1673ffffffffffffffffffffffffffffffffffffffff16815260200190815260200160002060000160008154809291906121959061514c565b9190505550600c60008573ffffffffffffffffffffffffffffffffffffffff1673ffffffffffffffffffffffffffffffffffffffff16815260200190815260200160002060010185908060018154018082558091505060019003906000526020600020016000909190919091505584600a600087815260200190815260200160002060050160009054906101000a900473ffffffffffffffffffffffffffffffffffffffff1685600a600089815260200190815260200160002060010160405160200161226594939291906152fe565b6040516020818303038152906040528051906020012060001c600a6000878152602001908152602001600020600b01819055508373ffffffffffffffffffffffffffffffffffffffff163373ffffffffffffffffffffffffffffffffffffffff16867fef1cb90ab53defb050ecdf1bec6f745742f554e1b09526e39f960d571cd1f3bd426040516122f691906150d9565b60405180910390a45050505050565b61230e81614321565b50565b3361231b816116f5565b61232457600080fd5b826003600c81111561233957612338614c29565b5b600a6000838152602001908152602001600020600c0160009054906101000a900460ff16600c81111561236f5761236e614c29565b5b1461237957600080fd5b6001600a600086815260200190815260200160002060080160026101000a81548160ff0219169083151502179055506004600a6000868152602001908152602001600020600c0160006101000a81548160ff0219169083600c8111156123e2576123e1614c29565b5b021790555082600a6000868152602001908152602001600020600a01819055503373ffffffffffffffffffffffffffffffffffffffff16847f02b81c1405d612f3db14b449985a4aabdff28384bb7e12c5e4c4aa9fa1e9f9af428660405161244b9291906150f4565b60405180910390a350505050565b3361246381611674565b61246c57600080fd5b826009600c81111561248157612480614c29565b5b600a6000838152602001908152602001600020600c0160009054906101000a900460ff16600c8111156124b7576124b6614c29565b5b146124c157600080fd5b8360011515600a600083815260200190815260200160002060080160009054906101000a900460ff161515146124f657600080fd5b600a806000878152602001908152602001600020600c0160006101000a81548160ff0219169083600c81111561252f5761252e614c29565b5b021790555083600a6000878152602001908152602001600020600a01819055506001600a600087815260200190815260200160002060080160026101000a81548160ff0219169083151502179055503373ffffffffffffffffffffffffffffffffffffffff16857f15f96be6e4c7b03490c8220da8251fffd4f5f08ba5a8713a96c746c1b71d254742876040516125c79291906150f4565b60405180910390a35050505050565b336125e081610903565b6125e957600080fd5b826000600c8111156125fe576125fd614c29565b5b600a6000838152602001908152602001600020600c0160009054906101000a900460ff16600c81111561263457612633614c29565b5b1461263e57600080fd5b6001600a600086815260200190815260200160002060080160026101000a81548160ff0219169083151502179055506001600a6000868152602001908152602001600020600c0160006101000a81548160ff0219169083600c8111156126a7576126a6614c29565b5b021790555082600a6000868152602001908152602001600020600a01819055503373ffffffffffffffffffffffffffffffffffffffff16847f191580e268a8474c31b11f8958417d1f71b35d25884cd5e49ab272d6faaa01b542866040516127109291906150f4565b60405180910390a350505050565b60606000600c60008473ffffffffffffffffffffffffffffffffffffffff1673ffffffffffffffffffffffffffffffffffffffff1681526020019081526020016000206001018054905067ffffffffffffffff81111561278157612780614eb3565b5b6040519080825280602002602001820160405280156127ba57816020015b6127a76146e9565b81526020019060019003908161279f5790505b50905060005b600c60008573ffffffffffffffffffffffffffffffffffffffff1673ffffffffffffffffffffffffffffffffffffffff16815260200190815260200160002060010180549050811015612c37576000600a6000600c60008873ffffffffffffffffffffffffffffffffffffffff1673ffffffffffffffffffffffffffffffffffffffff16815260200190815260200160002060010184815481106128675761286661540e565b5b90600052602060002001548152602001908152602001600020905080604051806101e0016040529081600082015481526020016001820180546128a99061522d565b80601f01602080910402602001604051908101604052809291908181526020018280546128d59061522d565b80156129225780601f106128f757610100808354040283529160200191612922565b820191906000526020600020905b81548152906001019060200180831161290557829003601f168201915b5050505050815260200160028201805461293b9061522d565b80601f01602080910402602001604051908101604052809291908181526020018280546129679061522d565b80156129b45780601f10612989576101008083540402835291602001916129b4565b820191906000526020600020905b81548152906001019060200180831161299757829003601f168201915b505050505081526020016003820180546129cd9061522d565b80601f01602080910402602001604051908101604052809291908181526020018280546129f99061522d565b8015612a465780601f10612a1b57610100808354040283529160200191612a46565b820191906000526020600020905b815481529060010190602001808311612a2957829003601f168201915b505050505081526020016004820160009054906101000a900473ffffffffffffffffffffffffffffffffffffffff1673ffffffffffffffffffffffffffffffffffffffff1673ffffffffffffffffffffffffffffffffffffffff1681526020016005820160009054906101000a900473ffffffffffffffffffffffffffffffffffffffff1673ffffffffffffffffffffffffffffffffffffffff1673ffffffffffffffffffffffffffffffffffffffff1681526020016006820160009054906101000a900473ffffffffffffffffffffffffffffffffffffffff1673ffffffffffffffffffffffffffffffffffffffff1673ffffffffffffffffffffffffffffffffffffffff168152602001600782015481526020016008820160009054906101000a900460ff161515151581526020016008820160019054906101000a900460ff161515151581526020016008820160029054906101000a900460ff1615151515815260200160098201548152602001600a8201548152602001600b8201548152602001600c820160009054906101000a900460ff16600c811115612bef57612bee614c29565b5b600c811115612c0157612c00614c29565b5b81525050838381518110612c1857612c1761540e565b5b6020026020010181905250508080612c2f9061514c565b9150506127c0565b5080915050919050565b33612c4b81611577565b612c5457600080fd5b600a6000838152602001908152602001600020600a015480341015612c7857600080fd5b826005600c811115612c8d57612c8c614c29565b5b600a6000838152602001908152602001600020600c0160009054906101000a900460ff16600c811115612cc357612cc2614c29565b5b14612ccd57600080fd5b8380600a600083815260200190815260200160002060050160009054906101000a900473ffffffffffffffffffffffffffffffffffffffff1633600a6000858152602001908152602001600020600101604051602001612d309493929190615371565b6040516020818303038152906040528051906020012060001c600a6000838152602001908152602001600020600b015414612d6a57600080fd5b6006600a6000878152602001908152602001600020600c0160006101000a81548160ff0219169083600c811115612da457612da3614c29565b5b02179055506000600a600087815260200190815260200160002060080160026101000a81548160ff021916908315150217905550600a600086815260200190815260200160002060050160009054906101000a900473ffffffffffffffffffffffffffffffffffffffff1673ffffffffffffffffffffffffffffffffffffffff166108fc600a6000888152602001908152602001600020600a01549081150290604051600060405180830381858888f19350505050158015612e6a573d6000803e3d6000fd5b50600b6000600a600088815260200190815260200160002060050160009054906101000a900473ffffffffffffffffffffffffffffffffffffffff1673ffffffffffffffffffffffffffffffffffffffff1673ffffffffffffffffffffffffffffffffffffffff1681526020019081526020016000206000016000815480929190612ef4906153bb565b9190505550612f3985600a600088815260200190815260200160002060050160009054906101000a900473ffffffffffffffffffffffffffffffffffffffff16613ec7565b33600a600087815260200190815260200160002060050160006101000a81548173ffffffffffffffffffffffffffffffffffffffff021916908373ffffffffffffffffffffffffffffffffffffffff1602179055506000600a6000878152602001908152602001600020600a0181905550600b60003373ffffffffffffffffffffffffffffffffffffffff1673ffffffffffffffffffffffffffffffffffffffff1681526020019081526020016000206000016000815480929190612ffd9061514c565b9190505550600b60003373ffffffffffffffffffffffffffffffffffffffff1673ffffffffffffffffffffffffffffffffffffffff168152602001908152602001600020600101859080600181540180825580915050600190039060005260206000200160009091909190915055847f568f99bfa0294af6be0e3aafa4f1109a23175d03006f5e4341622b2e3ce5c1a4423360405161309d9291906153e5565b60405180910390a25050505050565b6130b58161437b565b50565b336130c2816116f5565b6130cb57600080fd5b816130d581611577565b6130de57600080fd5b836004600c8111156130f3576130f2614c29565b5b600a6000838152602001908152602001600020600c0160009054906101000a900460ff16600c81111561312957613128614c29565b5b1461313357600080fd5b6005600a6000878152602001908152602001600020600c0160006101000a81548160ff0219169083600c81111561316d5761316c614c29565b5b021790555083600a600087815260200190815260200160002060060160006101000a81548173ffffffffffffffffffffffffffffffffffffffff021916908373ffffffffffffffffffffffffffffffffffffffff160217905550600c60008573ffffffffffffffffffffffffffffffffffffffff1673ffffffffffffffffffffffffffffffffffffffff168152602001908152602001600020600001600081548092919061321a9061514c565b9190505550600c60008573ffffffffffffffffffffffffffffffffffffffff1673ffffffffffffffffffffffffffffffffffffffff16815260200190815260200160002060010185908060018154018082558091505060019003906000526020600020016000909190919091505584600a600087815260200190815260200160002060050160009054906101000a900473ffffffffffffffffffffffffffffffffffffffff1685600a60008981526020019081526020016000206001016040516020016132ea94939291906152fe565b6040516020818303038152906040528051906020012060001c600a6000878152602001908152602001600020600b01819055508373ffffffffffffffffffffffffffffffffffffffff163373ffffffffffffffffffffffffffffffffffffffff16867ff0085f598ab3ac050dca19ea301994110bdc7e266c0baf0ac5d4604dadd913d24260405161337b91906150d9565b60405180910390a45050505050565b60606000600b60008473ffffffffffffffffffffffffffffffffffffffff1673ffffffffffffffffffffffffffffffffffffffff1681526020019081526020016000206001018054905067ffffffffffffffff8111156133ed576133ec614eb3565b5b60405190808252806020026020018201604052801561342657816020015b6134136146e9565b81526020019060019003908161340b5790505b50905060005b600b60008573ffffffffffffffffffffffffffffffffffffffff1673ffffffffffffffffffffffffffffffffffffffff168152602001908152602001600020600101805490508110156138a3576000600a6000600b60008873ffffffffffffffffffffffffffffffffffffffff1673ffffffffffffffffffffffffffffffffffffffff16815260200190815260200160002060010184815481106134d3576134d261540e565b5b90600052602060002001548152602001908152602001600020905080604051806101e0016040529081600082015481526020016001820180546135159061522d565b80601f01602080910402602001604051908101604052809291908181526020018280546135419061522d565b801561358e5780601f106135635761010080835404028352916020019161358e565b820191906000526020600020905b81548152906001019060200180831161357157829003601f168201915b505050505081526020016002820180546135a79061522d565b80601f01602080910402602001604051908101604052809291908181526020018280546135d39061522d565b80156136205780601f106135f557610100808354040283529160200191613620565b820191906000526020600020905b81548152906001019060200180831161360357829003601f168201915b505050505081526020016003820180546136399061522d565b80601f01602080910402602001604051908101604052809291908181526020018280546136659061522d565b80156136b25780601f10613687576101008083540402835291602001916136b2565b820191906000526020600020905b81548152906001019060200180831161369557829003601f168201915b505050505081526020016004820160009054906101000a900473ffffffffffffffffffffffffffffffffffffffff1673ffffffffffffffffffffffffffffffffffffffff1673ffffffffffffffffffffffffffffffffffffffff1681526020016005820160009054906101000a900473ffffffffffffffffffffffffffffffffffffffff1673ffffffffffffffffffffffffffffffffffffffff1673ffffffffffffffffffffffffffffffffffffffff1681526020016006820160009054906101000a900473ffffffffffffffffffffffffffffffffffffffff1673ffffffffffffffffffffffffffffffffffffffff1673ffffffffffffffffffffffffffffffffffffffff168152602001600782015481526020016008820160009054906101000a900460ff161515151581526020016008820160019054906101000a900460ff161515151581526020016008820160029054906101000a900460ff1615151515815260200160098201548152602001600a8201548152602001600b8201548152602001600c820160009054906101000a900460ff16600c81111561385b5761385a614c29565b5b600c81111561386d5761386c614c29565b5b815250508383815181106138845761388361540e565b5b602002602001018190525050808061389b9061514c565b91505061342c565b5080915050919050565b6000336138b981610903565b6138c257600080fd5b60006138cc6143d5565b90506000339050604051806101e001604052808381526020018a81526020018881526020018981526020018273ffffffffffffffffffffffffffffffffffffffff1681526020018273ffffffffffffffffffffffffffffffffffffffff168152602001600073ffffffffffffffffffffffffffffffffffffffff168152602001428152602001871515815260200160001515815260200160001515815260200186815260200160008152602001600081526020016000600c81111561399457613993614c29565b5b815250600a60008481526020019081526020016000206000820151816000015560208201518160010190805190602001906139d09291906147b9565b5060408201518160020190805190602001906139ed9291906147b9565b506060820151816003019080519060200190613a0a9291906147b9565b5060808201518160040160006101000a81548173ffffffffffffffffffffffffffffffffffffffff021916908373ffffffffffffffffffffffffffffffffffffffff16021790555060a08201518160050160006101000a81548173ffffffffffffffffffffffffffffffffffffffff021916908373ffffffffffffffffffffffffffffffffffffffff16021790555060c08201518160060160006101000a81548173ffffffffffffffffffffffffffffffffffffffff021916908373ffffffffffffffffffffffffffffffffffffffff16021790555060e082015181600701556101008201518160080160006101000a81548160ff0219169083151502179055506101208201518160080160016101000a81548160ff0219169083151502179055506101408201518160080160026101000a81548160ff021916908315150217905550610160820151816009015561018082015181600a01556101a082015181600b01556101c082015181600c0160006101000a81548160ff0219169083600c811115613b9a57613b99614c29565b5b0217905550905050600b60008273ffffffffffffffffffffffffffffffffffffffff1673ffffffffffffffffffffffffffffffffffffffff1681526020019081526020016000206000016000815480929190613bf59061514c565b9190505550600b60008273ffffffffffffffffffffffffffffffffffffffff1673ffffffffffffffffffffffffffffffffffffffff1681526020019081526020016000206001018290806001815401808255809150506001900390600052602060002001600090919091909150553373ffffffffffffffffffffffffffffffffffffffff16827f5927e9cc693825f286f7181d772897345cef501932018aa4196ad97926cd542442604051613caa91906150d9565b60405180910390a381935050505095945050505050565b613cca81614433565b50565b613ce181600161448d90919063ffffffff16565b8073ffffffffffffffffffffffffffffffffffffffff167fe0bf0e8509bb65b00de9afcbc3870546ee37f1442ebfd9fe4211362ceb9dbce360405160405180910390a250565b613d3b81600361453890919063ffffffff16565b8073ffffffffffffffffffffffffffffffffffffffff167f28b26e7a3d20aedbc5f8f2ebf7da671c0491723a2b78f47a097b0e46dee0714260405160405180910390a250565b60008073ffffffffffffffffffffffffffffffffffffffff168273ffffffffffffffffffffffffffffffffffffffff161415613dbc57600080fd5b8260000160008373ffffffffffffffffffffffffffffffffffffffff1673ffffffffffffffffffffffffffffffffffffffff16815260200190815260200160002060009054906101000a900460ff16905092915050565b613e2781600361463e90919063ffffffff16565b8073ffffffffffffffffffffffffffffffffffffffff167f32dc543199df7e5ecd26e37915c895ccf94e87339d27cfe42886e67b06070fa960405160405180910390a250565b613e8181600761463e90919063ffffffff16565b8073ffffffffffffffffffffffffffffffffffffffff167fe1b1b06fc90496227fbac1fb1445a73dc0b50ffe20541bc439caf054e130f2dd60405160405180910390a250565b60005b600b60008373ffffffffffffffffffffffffffffffffffffffff1673ffffffffffffffffffffffffffffffffffffffff168152602001908152602001600020600101805490508110156140a757600b60008373ffffffffffffffffffffffffffffffffffffffff1673ffffffffffffffffffffffffffffffffffffffff1681526020019081526020016000206001018181548110613f6b57613f6a61540e565b5b906000526020600020015483141561409457600b60008373ffffffffffffffffffffffffffffffffffffffff1673ffffffffffffffffffffffffffffffffffffffff1681526020019081526020016000206001016001600b60008573ffffffffffffffffffffffffffffffffffffffff1673ffffffffffffffffffffffffffffffffffffffff16815260200190815260200160002060010180549050614011919061543d565b815481106140225761402161540e565b5b9060005260206000200154600b60008473ffffffffffffffffffffffffffffffffffffffff1673ffffffffffffffffffffffffffffffffffffffff16815260200190815260200160002060010182815481106140815761408061540e565b5b90600052602060002001819055506140a7565b808061409f9061514c565b915050613eca565b50600b60008273ffffffffffffffffffffffffffffffffffffffff1673ffffffffffffffffffffffffffffffffffffffff1681526020019081526020016000206001016001600b60008473ffffffffffffffffffffffffffffffffffffffff1673ffffffffffffffffffffffffffffffffffffffff1681526020019081526020016000206001018054905061413c919061543d565b8154811061414d5761414c61540e565b5b90600052602060002001600090555050565b61417381600561453890919063ffffffff16565b8073ffffffffffffffffffffffffffffffffffffffff167f561138658ca49a8540dc70dcfe64c9026c1c5b9344642242dd6562970f9c127860405160405180910390a250565b6141cd81600761453890919063ffffffff16565b8073ffffffffffffffffffffffffffffffffffffffff167fddbf200aa634dc3fb81cfd68583dd1040d1c751d335e1d86b631bde3e977fea860405160405180910390a250565b61422781600361448d90919063ffffffff16565b8073ffffffffffffffffffffffffffffffffffffffff167f32be4a8d8826ffe9dc8a86625dc3a215b00e3d5820fcc2d92ff5487356f5cab060405160405180910390a250565b61428181600761448d90919063ffffffff16565b8073ffffffffffffffffffffffffffffffffffffffff167f5ba057f6859f45b8bf9055bb78466867ffa8b7b7b3eac0e39c132390fa15630b60405160405180910390a250565b6142db81600161453890919063ffffffff16565b8073ffffffffffffffffffffffffffffffffffffffff167f71ae26cad02663e3d92efd6ec56031a80d74a20c0ab4183faa8bf262261c9baa60405160405180910390a250565b61433581600561448d90919063ffffffff16565b8073ffffffffffffffffffffffffffffffffffffffff167fd5343fb03455ce242a0f2aa16059f1b1036283c9220e28e631c46f1d6c55f89560405160405180910390a250565b61438f81600561463e90919063ffffffff16565b8073ffffffffffffffffffffffffffffffffffffffff167fb95900c899bdac269b9171170672563471748b1d67c0f84de39892ffe1bb74f560405160405180910390a250565b6000600d60008154809291906143ea9061514c565b91905055506304ec38ed4233600d5460405160200161440b93929190615471565b6040516020818303038152906040528051906020012060001c61442e91906154dd565b905090565b61444781600161463e90919063ffffffff16565b8073ffffffffffffffffffffffffffffffffffffffff167fd624a9d6aede8c855ca1538132c456ef4117d142f2b2b6ab106d1c06356715fd60405160405180910390a250565b600073ffffffffffffffffffffffffffffffffffffffff168173ffffffffffffffffffffffffffffffffffffffff1614156144c757600080fd5b6144d18282613d81565b6144da57600080fd5b60018260010160008373ffffffffffffffffffffffffffffffffffffffff1673ffffffffffffffffffffffffffffffffffffffff16815260200190815260200160002060006101000a81548160ff0219169083151502179055505050565b600073ffffffffffffffffffffffffffffffffffffffff168173ffffffffffffffffffffffffffffffffffffffff16141561457257600080fd5b61457c8282613d81565b1561458657600080fd5b60018260000160008373ffffffffffffffffffffffffffffffffffffffff1673ffffffffffffffffffffffffffffffffffffffff16815260200190815260200160002060006101000a81548160ff02191690831515021790555060008260010160008373ffffffffffffffffffffffffffffffffffffffff1673ffffffffffffffffffffffffffffffffffffffff16815260200190815260200160002060006101000a81548160ff0219169083151502179055505050565b600073ffffffffffffffffffffffffffffffffffffffff168173ffffffffffffffffffffffffffffffffffffffff16141561467857600080fd5b6146828282613d81565b61468b57600080fd5b60008260010160008373ffffffffffffffffffffffffffffffffffffffff1673ffffffffffffffffffffffffffffffffffffffff16815260200190815260200160002060006101000a81548160ff0219169083151502179055505050565b604051806101e0016040528060008152602001606081526020016060815260200160608152602001600073ffffffffffffffffffffffffffffffffffffffff168152602001600073ffffffffffffffffffffffffffffffffffffffff168152602001600073ffffffffffffffffffffffffffffffffffffffff168152602001600081526020016000151581526020016000151581526020016000151581526020016000815260200160008152602001600081526020016000600c8111156147b3576147b2614c29565b5b81525090565b8280546147c59061522d565b90600052602060002090601f0160209004810192826147e7576000855561482e565b82601f1061480057805160ff191683800117855561482e565b8280016001018555821561482e579182015b8281111561482d578251825591602001919060010190614812565b5b50905061483b919061483f565b5090565b5b80821115614858576000816000905550600101614840565b5090565b6000604051905090565b600080fd5b600080fd5b6000819050919050565b61488381614870565b811461488e57600080fd5b50565b6000813590506148a08161487a565b92915050565b600080604083850312156148bd576148bc614866565b5b60006148cb85828601614891565b92505060206148dc85828601614891565b9150509250929050565b600073ffffffffffffffffffffffffffffffffffffffff82169050919050565b6000614911826148e6565b9050919050565b61492181614906565b811461492c57600080fd5b50565b60008135905061493e81614918565b92915050565b60006020828403121561495a57614959614866565b5b60006149688482850161492f565b91505092915050565b60008115159050919050565b61498681614971565b82525050565b60006020820190506149a1600083018461497d565b92915050565b60006149b2826148e6565b9050919050565b6149c2816149a7565b81146149cd57600080fd5b50565b6000813590506149df816149b9565b92915050565b600080604083850312156149fc576149fb614866565b5b6000614a0a85828601614891565b9250506020614a1b858286016149d0565b9150509250929050565b600060208284031215614a3b57614a3a614866565b5b6000614a4984828501614891565b91505092915050565b614a5b81614870565b82525050565b600081519050919050565b600082825260208201905092915050565b60005b83811015614a9b578082015181840152602081019050614a80565b83811115614aaa576000848401525b50505050565b6000601f19601f8301169050919050565b6000614acc82614a61565b614ad68185614a6c565b9350614ae6818560208601614a7d565b614aef81614ab0565b840191505092915050565b614b0381614906565b82525050565b600060e082019050614b1e600083018a614a52565b8181036020830152614b308189614ac1565b90508181036040830152614b448188614ac1565b9050614b536060830187614afa565b614b606080830186614afa565b614b6d60a0830185614a52565b614b7a60c0830184614a52565b98975050505050505050565b600081519050919050565b600082825260208201905092915050565b6000819050602082019050919050565b614bbb81614870565b82525050565b600082825260208201905092915050565b6000614bdd82614a61565b614be78185614bc1565b9350614bf7818560208601614a7d565b614c0081614ab0565b840191505092915050565b614c14816149a7565b82525050565b614c2381614971565b82525050565b7f4e487b7100000000000000000000000000000000000000000000000000000000600052602160045260246000fd5b600d8110614c6957614c68614c29565b5b50565b6000819050614c7a82614c58565b919050565b6000614c8a82614c6c565b9050919050565b614c9a81614c7f565b82525050565b60006101e083016000830151614cb96000860182614bb2565b5060208301518482036020860152614cd18282614bd2565b91505060408301518482036040860152614ceb8282614bd2565b91505060608301518482036060860152614d058282614bd2565b9150506080830151614d1a6080860182614c0b565b5060a0830151614d2d60a0860182614c0b565b5060c0830151614d4060c0860182614c0b565b5060e0830151614d5360e0860182614bb2565b50610100830151614d68610100860182614c1a565b50610120830151614d7d610120860182614c1a565b50610140830151614d92610140860182614c1a565b50610160830151614da7610160860182614bb2565b50610180830151614dbc610180860182614bb2565b506101a0830151614dd16101a0860182614bb2565b506101c0830151614de66101c0860182614c91565b508091505092915050565b6000614dfd8383614ca0565b905092915050565b6000602082019050919050565b6000614e1d82614b86565b614e278185614b91565b935083602082028501614e3985614ba2565b8060005b85811015614e755784840389528151614e568582614df1565b9450614e6183614e05565b925060208a01995050600181019050614e3d565b50829750879550505050505092915050565b60006020820190508181036000830152614ea18184614e12565b905092915050565b600080fd5b600080fd5b7f4e487b7100000000000000000000000000000000000000000000000000000000600052604160045260246000fd5b614eeb82614ab0565b810181811067ffffffffffffffff82111715614f0a57614f09614eb3565b5b80604052505050565b6000614f1d61485c565b9050614f298282614ee2565b919050565b600067ffffffffffffffff821115614f4957614f48614eb3565b5b614f5282614ab0565b9050602081019050919050565b82818337600083830152505050565b6000614f81614f7c84614f2e565b614f13565b905082815260208101848484011115614f9d57614f9c614eae565b5b614fa8848285614f5f565b509392505050565b600082601f830112614fc557614fc4614ea9565b5b8135614fd5848260208601614f6e565b91505092915050565b614fe781614971565b8114614ff257600080fd5b50565b60008135905061500481614fde565b92915050565b600080600080600060a0868803121561502657615025614866565b5b600086013567ffffffffffffffff8111156150445761504361486b565b5b61505088828901614fb0565b955050602086013567ffffffffffffffff8111156150715761507061486b565b5b61507d88828901614fb0565b945050604086013567ffffffffffffffff81111561509e5761509d61486b565b5b6150aa88828901614fb0565b93505060606150bb88828901614ff5565b92505060806150cc88828901614891565b9150509295509295909350565b60006020820190506150ee6000830184614a52565b92915050565b60006040820190506151096000830185614a52565b6151166020830184614a52565b9392505050565b7f4e487b7100000000000000000000000000000000000000000000000000000000600052601160045260246000fd5b600061515782614870565b91507fffffffffffffffffffffffffffffffffffffffffffffffffffffffffffffffff82141561518a5761518961511d565b5b600182019050919050565b6000819050919050565b6151b06151ab82614870565b615195565b82525050565b60008160601b9050919050565b60006151ce826151b6565b9050919050565b60006151e0826151c3565b9050919050565b6151f86151f3826149a7565b6151d5565b82525050565b7f4e487b7100000000000000000000000000000000000000000000000000000000600052602260045260246000fd5b6000600282049050600182168061524557607f821691505b60208210811415615259576152586151fe565b5b50919050565b600081905092915050565b60008190508160005260206000209050919050565b6000815461528c8161522d565b615296818661525f565b945060018216600081146152b157600181146152c2576152f5565b60ff198316865281860193506152f5565b6152cb8561526a565b60005b838110156152ed578154818901526001820191506020810190506152ce565b838801955050505b50505092915050565b600061530a828761519f565b60208201915061531a82866151e7565b60148201915061532a82856151e7565b60148201915061533a828461527f565b915081905095945050505050565b6000615353826151c3565b9050919050565b61536b61536682614906565b615348565b82525050565b600061537d828761519f565b60208201915061538d82866151e7565b60148201915061539d828561535a565b6014820191506153ad828461527f565b915081905095945050505050565b60006153c682614870565b915060008214156153da576153d961511d565b5b600182039050919050565b60006040820190506153fa6000830185614a52565b6154076020830184614afa565b9392505050565b7f4e487b7100000000000000000000000000000000000000000000000000000000600052603260045260246000fd5b600061544882614870565b915061545383614870565b9250828210156154665761546561511d565b5b828203905092915050565b600061547d828661519f565b60208201915061548d828561535a565b60148201915061549d828461519f565b602082019150819050949350505050565b7f4e487b7100000000000000000000000000000000000000000000000000000000600052601260045260246000fd5b60006154e882614870565b91506154f383614870565b925082615503576155026154ae565b5b82820690509291505056fea264697066735822122049f17232c3689ec03368c7cf9fdd3f90da8ac9907929fb959cbe93584465733964736f6c634300080b0033",
  "immutableReferences": {},
  "source": "pragma solidity >=0.4.24;\r\n\r\n//contracts\r\nimport \"./Consumer.sol\";\r\nimport \"./Distributor.sol\";\r\nimport \"./Manufacturer.sol\";\r\nimport \"./Retailer.sol\";\r\n\r\ncontract SupplyChain is Retailer, Consumer, Manufacturer, Distributor {\r\n    uint256[] composite;\r\n    mapping(uint256 => Item) items;\r\n    mapping(address => totalItems) ownership;\r\n    mapping(address => totalItems) shipped;\r\n    //mapping(uint256 => composite) mappingComposite;\r\n\r\n    uint256 randNonce = 0;\r\n\r\n    function randMod() internal returns (uint256) {\r\n        randNonce++;\r\n        return\r\n            uint256(\r\n                keccak256(\r\n                    abi.encodePacked(block.timestamp, msg.sender, randNonce)\r\n                )\r\n            ) % 82589933;\r\n    }\r\n\r\n    function deleteItem(uint256 _uin, address x) internal {\r\n        for (uint256 i = 0; i < ownership[x].itemUin.length; i++) {\r\n            if (_uin == ownership[x].itemUin[i]) {\r\n                ownership[x].itemUin[i] = ownership[x].itemUin[\r\n                    ownership[x].itemUin.length - 1\r\n                ];\r\n                break;\r\n            }\r\n        }\r\n        delete ownership[x].itemUin[ownership[x].itemUin.length - 1];\r\n    }\r\n\r\n    enum State {\r\n        SProducedByManufacturer, //0\r\n        SForSaleByManufacturer, //1\r\n        SShippedByManufacturer, //2\r\n        SReceivedByDistributor, //3\r\n        SForSaleByDistributor, //4\r\n        SShippedByDistributor, //5\r\n        SReceivedByRetailer, //6\r\n        SForSaleByRetailer, //7\r\n        SShippedByRetailer, //8\r\n        SReceivedByCustomer, //9\r\n        SCollectibleForSaleByCustomer, //10\r\n        SShippedByCustomer, //11\r\n        SReceivedCollectibleByCustomer //12\r\n    }\r\n\r\n    State constant defaultState = State.SProducedByManufacturer;\r\n\r\n    struct totalItems {\r\n        uint256 count;\r\n        uint256[] itemUin;\r\n    }\r\n\r\n    struct Item {\r\n        uint256 uin;\r\n        string productName;\r\n        string productType;\r\n        string productDescription;\r\n        address payable manufacturerId;\r\n        address payable CurrentOwner;\r\n        address payable ShipTo;\r\n        uint256 productDate;\r\n        bool collectible;\r\n        bool composite;\r\n        bool visibility;\r\n        uint256 weight;\r\n        uint256 productPrice;\r\n        uint256 productHash;\r\n        State productState;\r\n    }\r\n\r\n    //Events\r\n\r\n    event EProducedByManufacturer(\r\n        uint256 indexed uin,\r\n        uint256 x,\r\n        address indexed y\r\n    );\r\n    event EForSaleByManufacturer(\r\n        uint256 indexed uin,\r\n        uint256 x,\r\n        address indexed y,\r\n        uint256 z\r\n    );\r\n    event EShippedByManufacturer(\r\n        uint256 indexed uin,\r\n        uint256 x,\r\n        address indexed y,\r\n        address indexed z\r\n    );\r\n    event EReceivedByDistributor(\r\n        uint256 indexed uin,\r\n        uint256 x,\r\n        address indexed y\r\n    );\r\n    event EForSaleByDistributor(\r\n        uint256 indexed uin,\r\n        uint256 x,\r\n        address indexed y,\r\n        uint256 z\r\n    );\r\n    event EShippedByDistributor(\r\n        uint256 indexed uin,\r\n        uint256 x,\r\n        address indexed y,\r\n        address indexed z\r\n    );\r\n    event EReceivedByRetailer(uint256 indexed uin, uint256 x, address y);\r\n    event EForSaleByRetailer(\r\n        uint256 indexed uin,\r\n        uint256 x,\r\n        address indexed y,\r\n        uint256 z\r\n    );\r\n    event EShippedByRetailer(\r\n        uint256 indexed uin,\r\n        uint256 x,\r\n        address indexed y,\r\n        address indexed z\r\n    );\r\n    event EReceivedByCustomer(uint256 indexed uin, uint256 x, address y);\r\n    event ECollectibleForSaleByCustomer(\r\n        uint256 indexed uin,\r\n        uint256 x,\r\n        address indexed y,\r\n        uint256 z\r\n    );\r\n    event EShippedtheCollectibleByCustomer(\r\n        uint256 indexed uin,\r\n        uint256 x,\r\n        address indexed y,\r\n        address indexed z\r\n    );\r\n    event EReceivedCollectibleByCustomer(\r\n        uint256 indexed uin,\r\n        uint256 x,\r\n        address indexed y\r\n    );\r\n\r\n    //Is Amount Equal\r\n    modifier paidEnough(uint256 _price) {\r\n        require(msg.value >= _price);\r\n        _;\r\n    }\r\n\r\n    //Return Extra value\r\n    modifier checkValue(uint256 _upc, address payable addressToFund) {\r\n        uint256 _price = items[_upc].productPrice;\r\n        uint256 amountToReturn = msg.value - _price;\r\n        addressToFund.transfer(amountToReturn);\r\n        _;\r\n    }\r\n\r\n    //Item State Modifiers\r\n    modifier MProducedByManufacturer(uint256 _uin) {\r\n        require(items[_uin].productState == State.SProducedByManufacturer);\r\n        _;\r\n    }\r\n\r\n    modifier MForSaleByManufacturer(uint256 _uin) {\r\n        require(items[_uin].productState == State.SForSaleByManufacturer);\r\n        _;\r\n    }\r\n\r\n    modifier MReceivedByDistributor(uint256 _uin) {\r\n        require(items[_uin].productState == State.SReceivedByDistributor);\r\n        _;\r\n    }\r\n\r\n    modifier MShippedByManufacturer(uint256 _uin) {\r\n        require(items[_uin].productState == State.SShippedByManufacturer);\r\n        _;\r\n    }\r\n\r\n    modifier MForSaleByDistributor(uint256 _uin) {\r\n        require(items[_uin].productState == State.SForSaleByDistributor);\r\n        _;\r\n    }\r\n\r\n    modifier MShippedByDistributor(uint256 _uin) {\r\n        require(items[_uin].productState == State.SShippedByDistributor);\r\n        _;\r\n    }\r\n\r\n    modifier MReceivedByRetailer(uint256 _uin) {\r\n        require(items[_uin].productState == State.SReceivedByRetailer);\r\n        _;\r\n    }\r\n\r\n    modifier MForSaleByRetailer(uint256 _uin) {\r\n        require(items[_uin].productState == State.SForSaleByRetailer);\r\n        _;\r\n    }\r\n\r\n    modifier MShippedByRetailer(uint256 _uin) {\r\n        require(items[_uin].productState == State.SShippedByRetailer);\r\n        _;\r\n    }\r\n\r\n    modifier MReceivedByCustomer(uint256 _uin) {\r\n        require(items[_uin].productState == State.SReceivedByCustomer);\r\n        _;\r\n    }\r\n\r\n    modifier MCollectibleForSaleByCustomer(uint256 _uin) {\r\n        require(\r\n            items[_uin].productState == State.SCollectibleForSaleByCustomer\r\n        );\r\n        _;\r\n    }\r\n\r\n    modifier MShippedCollectibleByCustomer(uint256 _uin) {\r\n        require(items[_uin].productState == State.SShippedByCustomer);\r\n        _;\r\n    }\r\n\r\n    modifier MReceivedCollectibleByCustomer(uint256 _uin) {\r\n        require(\r\n            items[_uin].productState == State.SReceivedCollectibleByCustomer\r\n        );\r\n        _;\r\n    }\r\n\r\n    modifier MisCollectible(uint256 _uin) {\r\n        require(items[_uin].collectible == true);\r\n        _;\r\n    }\r\n\r\n    modifier MVerifyCaller(uint256 _uin) {\r\n        require(\r\n            items[_uin].productHash ==\r\n                uint256(\r\n                    keccak256(\r\n                        abi.encodePacked(\r\n                            _uin,\r\n                            items[_uin].CurrentOwner,\r\n                            msg.sender,\r\n                            items[_uin].productName\r\n                        )\r\n                    )\r\n                )\r\n        );\r\n        _;\r\n    }\r\n\r\n    // Step1\r\n    function producebymanufacturer(\r\n        string memory _ProductName,\r\n        string memory _ProductDesc,\r\n        string memory _ProductType,\r\n        bool _collectible,\r\n        uint256 weight\r\n    ) public onlyManufacturer(msg.sender) returns (uint256) {\r\n        uint256 uin = randMod();\r\n        address payable manufacturer = payable(msg.sender);\r\n        items[uin] = Item(\r\n            uin,\r\n            _ProductName,\r\n            _ProductType,\r\n            _ProductDesc,\r\n            manufacturer,\r\n            manufacturer,\r\n            payable(address(0)),\r\n            block.timestamp,\r\n            _collectible,\r\n            false,\r\n            false,\r\n            weight,\r\n            0,\r\n            0,\r\n            defaultState\r\n        );\r\n        ownership[manufacturer].count++;\r\n        ownership[manufacturer].itemUin.push(uin);\r\n        emit EProducedByManufacturer(uin, block.timestamp, msg.sender);\r\n        return (uin);\r\n    }\r\n\r\n    //Step2\r\n    function forsalebymanufacturer(uint256 uin, uint256 price)\r\n        public\r\n        onlyManufacturer(msg.sender)\r\n        MProducedByManufacturer(uin)\r\n    {\r\n        items[uin].visibility = true;\r\n        items[uin].productState = State.SForSaleByManufacturer;\r\n        items[uin].productPrice = price;\r\n        emit EForSaleByManufacturer(uin, block.timestamp, msg.sender, price);\r\n    }\r\n\r\n    //Step3\r\n\r\n    function shippedbymanufacturer(uint256 uin, address payable shipTo)\r\n        public\r\n        onlyManufacturer(msg.sender)\r\n        onlyDistributor(shipTo)\r\n        MForSaleByManufacturer(uin)\r\n    {\r\n        items[uin].productState = State.SShippedByManufacturer;\r\n        items[uin].ShipTo = shipTo;\r\n        shipped[shipTo].count++;\r\n        shipped[shipTo].itemUin.push(uin);\r\n        items[uin].productHash = uint256(\r\n            keccak256(\r\n                abi.encodePacked(\r\n                    uin,\r\n                    items[uin].CurrentOwner,\r\n                    shipTo,\r\n                    items[uin].productName\r\n                )\r\n            )\r\n        );\r\n        emit EShippedByManufacturer(uin, block.timestamp, msg.sender, shipTo);\r\n    }\r\n\r\n    //Step4\r\n\r\n    function receivedbydistributor(uint256 uin)\r\n        public\r\n        payable\r\n        onlyDistributor(msg.sender)\r\n        paidEnough(items[uin].productPrice)\r\n        MShippedByManufacturer(uin)\r\n        MVerifyCaller(uin)\r\n    //checkValue(items[uin].productPrice, payable(msg.sender))\r\n    {\r\n        items[uin].productState = State.SReceivedByDistributor;\r\n        items[uin].visibility = false;\r\n        items[uin].CurrentOwner.transfer(items[uin].productPrice);\r\n        deleteItem(uin, items[uin].CurrentOwner);\r\n        ownership[items[uin].CurrentOwner].count--;\r\n        items[uin].CurrentOwner = payable(msg.sender);\r\n        items[uin].productPrice = 0;\r\n        ownership[msg.sender].count++;\r\n        ownership[msg.sender].itemUin.push(uin);\r\n        emit EReceivedByDistributor(uin, block.timestamp, msg.sender);\r\n    }\r\n\r\n    //Step5\r\n    function forsalebydistributor(uint256 uin, uint256 price)\r\n        public\r\n        onlyDistributor(msg.sender)\r\n        MReceivedByDistributor(uin)\r\n    {\r\n        items[uin].visibility = true;\r\n        items[uin].productState = State.SForSaleByDistributor;\r\n        items[uin].productPrice = price;\r\n        emit EForSaleByDistributor(uin, block.timestamp, msg.sender, price);\r\n    }\r\n\r\n    //Step6\r\n    function shippedbydistributor(uint256 uin, address payable shipTo)\r\n        public\r\n        onlyDistributor(msg.sender)\r\n        onlyRetailer(shipTo)\r\n        MForSaleByDistributor(uin)\r\n    {\r\n        items[uin].productState = State.SShippedByDistributor;\r\n        items[uin].ShipTo = shipTo;\r\n        shipped[shipTo].count++;\r\n        shipped[shipTo].itemUin.push(uin);\r\n        items[uin].productHash = uint256(\r\n            keccak256(\r\n                abi.encodePacked(\r\n                    uin,\r\n                    items[uin].CurrentOwner,\r\n                    shipTo,\r\n                    items[uin].productName\r\n                )\r\n            )\r\n        );\r\n        emit EShippedByDistributor(uin, block.timestamp, msg.sender, shipTo);\r\n    }\r\n\r\n    //Step7\r\n    function receivedbyretailer(uint256 uin)\r\n        public\r\n        payable\r\n        onlyRetailer(msg.sender)\r\n        paidEnough(items[uin].productPrice)\r\n        MShippedByDistributor(uin)\r\n        MVerifyCaller(uin)\r\n    {\r\n        items[uin].productState = State.SReceivedByRetailer;\r\n        items[uin].visibility = false;\r\n        items[uin].CurrentOwner.transfer(items[uin].productPrice);\r\n        ownership[items[uin].CurrentOwner].count--;\r\n        deleteItem(uin, items[uin].CurrentOwner);\r\n        items[uin].CurrentOwner = payable(msg.sender);\r\n        items[uin].productPrice = 0;\r\n        ownership[msg.sender].count++;\r\n        ownership[msg.sender].itemUin.push(uin);\r\n        emit EReceivedByRetailer(uin, block.timestamp, msg.sender);\r\n    }\r\n\r\n    //Step8\r\n    function forsalebyretailer(uint256 uin, uint256 price)\r\n        public\r\n        onlyRetailer(msg.sender)\r\n        MReceivedByRetailer(uin)\r\n    {\r\n        items[uin].productState = State.SForSaleByRetailer;\r\n        items[uin].productPrice = price;\r\n        emit EForSaleByRetailer(uin, block.timestamp, msg.sender, price);\r\n    }\r\n\r\n    //Step9\r\n    function shippedbyretailer(uint256 uin, address payable shipTo)\r\n        public\r\n        onlyRetailer(msg.sender)\r\n        onlyConsumer(shipTo)\r\n        MForSaleByRetailer(uin)\r\n    {\r\n        items[uin].productState = State.SShippedByRetailer;\r\n        items[uin].ShipTo = shipTo;\r\n        shipped[shipTo].count++;\r\n        shipped[shipTo].itemUin.push(uin);\r\n        items[uin].productHash = uint256(\r\n            keccak256(\r\n                abi.encodePacked(\r\n                    uin,\r\n                    items[uin].CurrentOwner,\r\n                    shipTo,\r\n                    items[uin].productName\r\n                )\r\n            )\r\n        );\r\n        emit EShippedByRetailer(uin, block.timestamp, msg.sender, shipTo);\r\n    }\r\n\r\n    //Step10\r\n    function receivedbycustomer(uint256 uin)\r\n        public\r\n        payable\r\n        onlyConsumer(payable(msg.sender))\r\n        paidEnough(items[uin].productPrice)\r\n        MShippedByRetailer(uin)\r\n        MVerifyCaller(uin)\r\n    {\r\n        items[uin].productState = State.SReceivedByCustomer;\r\n        items[uin].visibility = false;\r\n        items[uin].CurrentOwner.transfer(items[uin].productPrice);\r\n        ownership[items[uin].CurrentOwner].count--;\r\n        deleteItem(uin, items[uin].CurrentOwner);\r\n        items[uin].CurrentOwner = payable(msg.sender);\r\n        items[uin].productPrice = 0;\r\n        ownership[msg.sender].count++;\r\n        ownership[msg.sender].itemUin.push(uin);\r\n        emit EReceivedByCustomer(uin, block.timestamp, msg.sender);\r\n    }\r\n\r\n    //Step11\r\n    function collectibleforsalebycustomer(uint256 uin, uint256 price)\r\n        public\r\n        onlyConsumer(payable(msg.sender))\r\n        MReceivedByCustomer(uin)\r\n        MisCollectible(uin)\r\n    {\r\n        items[uin].productState = State.SCollectibleForSaleByCustomer;\r\n        items[uin].productPrice = price;\r\n        items[uin].visibility = true;\r\n        emit ECollectibleForSaleByCustomer(\r\n            uin,\r\n            block.timestamp,\r\n            msg.sender,\r\n            price\r\n        );\r\n    }\r\n\r\n    //Step12\r\n    function shippedcollectiblebycustomer(uint256 uin, address payable ShipTo)\r\n        public\r\n        onlyConsumer(payable(msg.sender))\r\n        onlyConsumer(ShipTo)\r\n        MCollectibleForSaleByCustomer(uin)\r\n    {\r\n        items[uin].productState = State.SShippedByCustomer;\r\n        items[uin].ShipTo = ShipTo;\r\n        shipped[ShipTo].count++;\r\n        shipped[ShipTo].itemUin.push(uin);\r\n        items[uin].productHash = uint256(\r\n            keccak256(\r\n                abi.encodePacked(\r\n                    uin,\r\n                    items[uin].CurrentOwner,\r\n                    ShipTo,\r\n                    items[uin].productName\r\n                )\r\n            )\r\n        );\r\n        emit EShippedtheCollectibleByCustomer(\r\n            uin,\r\n            block.timestamp,\r\n            msg.sender,\r\n            ShipTo\r\n        );\r\n    }\r\n\r\n    //Step13\r\n\r\n    function receivedcollectiblebycustomer(uint256 uin)\r\n        public\r\n        payable\r\n        onlyConsumer(payable(msg.sender))\r\n        MisCollectible(uin)\r\n        paidEnough(items[uin].productPrice)\r\n        MShippedCollectibleByCustomer(uin)\r\n        MVerifyCaller(uin)\r\n    {\r\n        items[uin].productState = State.SReceivedCollectibleByCustomer;\r\n        items[uin].visibility = false;\r\n        items[uin].CurrentOwner.transfer(items[uin].productPrice);\r\n        ownership[items[uin].CurrentOwner].count--;\r\n        deleteItem(uin, items[uin].CurrentOwner);\r\n        items[uin].CurrentOwner = payable(msg.sender);\r\n        items[uin].productPrice = 0;\r\n        ownership[msg.sender].count++;\r\n        ownership[msg.sender].itemUin.push(uin);\r\n        emit EReceivedCollectibleByCustomer(uin, block.timestamp, msg.sender);\r\n    }\r\n\r\n    //Step 14\r\n    function productDetail(uint256 uin)\r\n        public\r\n        view\r\n        returns (\r\n            uint256,\r\n            string memory,\r\n            string memory,\r\n            address,\r\n            address,\r\n            uint256,\r\n            uint256\r\n        )\r\n    {\r\n        return (\r\n            items[uin].uin,\r\n            items[uin].productName,\r\n            items[uin].productDescription,\r\n            items[uin].manufacturerId,\r\n            items[uin].CurrentOwner,\r\n            items[uin].productDate,\r\n            items[uin].productPrice\r\n        );\r\n    }\r\n\r\n    // function x() public view returns (Item[] memory) {\r\n    //     Item[] memory item = new Item[](ownership[msg.sender].itemUin.length);\r\n    //     for (uint256 i = 0; i < ownership[msg.sender].itemUin.length; i++) {\r\n    //         Item storage x = items[ownership[msg.sender].itemUin[i]];\r\n    //         item[i] = x;\r\n    //     }\r\n    //     return item;\r\n    // }\r\n\r\n    function x(address z) public view returns (Item[] memory) {\r\n        Item[] memory item = new Item[](ownership[z].itemUin.length);\r\n        for (uint256 i = 0; i < ownership[z].itemUin.length; i++) {\r\n            Item storage x = items[ownership[z].itemUin[i]];\r\n            item[i] = x;\r\n        }\r\n        return item;\r\n    }\r\n\r\n    // function y() public\r\n    // view\r\n    // returns (Item[] memory) {\r\n    //     Item[] memory item= new Item[](shipped[msg.sender].itemUin.length);\r\n    //     for(uint i=0;i<shipped[msg.sender].itemUin.length;i++){\r\n    //         Item storage x=items[shipped[msg.sender].itemUin[i]];\r\n    //         item[i]=x;\r\n    //     }\r\n    //     return item;\r\n    // }\r\n\r\n    function y(address z) public view returns (Item[] memory) {\r\n        Item[] memory item = new Item[](shipped[z].itemUin.length);\r\n        for (uint256 i = 0; i < shipped[z].itemUin.length; i++) {\r\n            Item storage x = items[shipped[z].itemUin[i]];\r\n            item[i] = x;\r\n        }\r\n        return item;\r\n    }\r\n}\r\n\r\n//         uint256 uin\r\n//         string productName;\r\n//         string productDescription;\r\n//         address manufacturerId;\r\n//         address CurrentOwner;\r\n//         uint256 productDate;\r\n//         bool collectible;\r\n//         bool composite;\r\n//         uint weight;\r\n//         uint productPrice;\r\n//         byte32 productHash;\r\n//         State productState;\r\n",
  "sourcePath": "C:\\Users\\Dell\\Desktop\\Contracts\\project\\truffle\\contracts\\SupplyChain.sol",
  "compiler": {
    "name": "solc",
    "version": "0.8.11+commit.d7f03943.Emscripten.clang"
  },
  "schemaVersion": "3.4.5",
  "updatedAt": "2022-03-14T16:45:58.620Z",
  "networkType": "ethereum",
  "devdoc": {
    "kind": "dev",
    "methods": {},
    "version": 1
  },
  "userdoc": {
    "kind": "user",
    "methods": {},
    "version": 1
  }
}