{
  "contractName": "SupplyChain",
  "abi": [
    {
      "anonymous": false,
      "inputs": [
        {
          "indexed": true,
          "internalType": "address",
          "name": "account",
          "type": "address"
        }
      ],
      "name": "ConsumerAdded",
      "type": "event"
    },
    {
      "anonymous": false,
      "inputs": [
        {
          "indexed": true,
          "internalType": "address",
          "name": "account",
          "type": "address"
        }
      ],
      "name": "ConsumerRemoved",
      "type": "event"
    },
    {
      "anonymous": false,
      "inputs": [
        {
          "indexed": true,
          "internalType": "address",
          "name": "account",
          "type": "address"
        }
      ],
      "name": "ConsumerReported",
      "type": "event"
    },
    {
      "anonymous": false,
      "inputs": [
        {
          "indexed": true,
          "internalType": "address",
          "name": "account",
          "type": "address"
        }
      ],
      "name": "ConsumerUnreported",
      "type": "event"
    },
    {
      "anonymous": false,
      "inputs": [
        {
          "indexed": true,
          "internalType": "address",
          "name": "account",
          "type": "address"
        }
      ],
      "name": "DistributorAdded",
      "type": "event"
    },
    {
      "anonymous": false,
      "inputs": [
        {
          "indexed": true,
          "internalType": "address",
          "name": "account",
          "type": "address"
        }
      ],
      "name": "DistributorRemoved",
      "type": "event"
    },
    {
      "anonymous": false,
      "inputs": [
        {
          "indexed": true,
          "internalType": "address",
          "name": "account",
          "type": "address"
        }
      ],
      "name": "DistributorReported",
      "type": "event"
    },
    {
      "anonymous": false,
      "inputs": [
        {
          "indexed": true,
          "internalType": "address",
          "name": "account",
          "type": "address"
        }
      ],
      "name": "DistributorUnreported",
      "type": "event"
    },
    {
      "anonymous": false,
      "inputs": [
        {
          "indexed": true,
          "internalType": "uint256",
          "name": "uin",
          "type": "uint256"
        },
        {
          "indexed": false,
          "internalType": "uint256",
          "name": "x",
          "type": "uint256"
        },
        {
          "indexed": true,
          "internalType": "address",
          "name": "y",
          "type": "address"
        },
        {
          "indexed": false,
          "internalType": "uint256",
          "name": "z",
          "type": "uint256"
        }
      ],
      "name": "ECollectibleForSaleByCustomer",
      "type": "event"
    },
    {
      "anonymous": false,
      "inputs": [
        {
          "indexed": true,
          "internalType": "uint256",
          "name": "uin",
          "type": "uint256"
        },
        {
          "indexed": false,
          "internalType": "uint256",
          "name": "x",
          "type": "uint256"
        },
        {
          "indexed": true,
          "internalType": "address",
          "name": "y",
          "type": "address"
        },
        {
          "indexed": false,
          "internalType": "uint256",
          "name": "z",
          "type": "uint256"
        }
      ],
      "name": "EForSaleByDistributor",
      "type": "event"
    },
    {
      "anonymous": false,
      "inputs": [
        {
          "indexed": true,
          "internalType": "uint256",
          "name": "uin",
          "type": "uint256"
        },
        {
          "indexed": false,
          "internalType": "uint256",
          "name": "x",
          "type": "uint256"
        },
        {
          "indexed": true,
          "internalType": "address",
          "name": "y",
          "type": "address"
        },
        {
          "indexed": false,
          "internalType": "uint256",
          "name": "z",
          "type": "uint256"
        }
      ],
      "name": "EForSaleByManufacturer",
      "type": "event"
    },
    {
      "anonymous": false,
      "inputs": [
        {
          "indexed": true,
          "internalType": "uint256",
          "name": "uin",
          "type": "uint256"
        },
        {
          "indexed": false,
          "internalType": "uint256",
          "name": "x",
          "type": "uint256"
        },
        {
          "indexed": true,
          "internalType": "address",
          "name": "y",
          "type": "address"
        },
        {
          "indexed": false,
          "internalType": "uint256",
          "name": "z",
          "type": "uint256"
        }
      ],
      "name": "EForSaleByRetailer",
      "type": "event"
    },
    {
      "anonymous": false,
      "inputs": [
        {
          "indexed": true,
          "internalType": "uint256",
          "name": "uin",
          "type": "uint256"
        },
        {
          "indexed": false,
          "internalType": "uint256",
          "name": "x",
          "type": "uint256"
        },
        {
          "indexed": true,
          "internalType": "address",
          "name": "y",
          "type": "address"
        }
      ],
      "name": "EProducedByManufacturer",
      "type": "event"
    },
    {
      "anonymous": false,
      "inputs": [
        {
          "indexed": true,
          "internalType": "uint256",
          "name": "uin",
          "type": "uint256"
        },
        {
          "indexed": false,
          "internalType": "uint256",
          "name": "x",
          "type": "uint256"
        },
        {
          "indexed": false,
          "internalType": "address",
          "name": "y",
          "type": "address"
        }
      ],
      "name": "EReceivedByCustomer",
      "type": "event"
    },
    {
      "anonymous": false,
      "inputs": [
        {
          "indexed": true,
          "internalType": "uint256",
          "name": "uin",
          "type": "uint256"
        },
        {
          "indexed": false,
          "internalType": "uint256",
          "name": "x",
          "type": "uint256"
        },
        {
          "indexed": true,
          "internalType": "address",
          "name": "y",
          "type": "address"
        }
      ],
      "name": "EReceivedByDistributor",
      "type": "event"
    },
    {
      "anonymous": false,
      "inputs": [
        {
          "indexed": true,
          "internalType": "uint256",
          "name": "uin",
          "type": "uint256"
        },
        {
          "indexed": false,
          "internalType": "uint256",
          "name": "x",
          "type": "uint256"
        },
        {
          "indexed": false,
          "internalType": "address",
          "name": "y",
          "type": "address"
        }
      ],
      "name": "EReceivedByRetailer",
      "type": "event"
    },
    {
      "anonymous": false,
      "inputs": [
        {
          "indexed": true,
          "internalType": "uint256",
          "name": "uin",
          "type": "uint256"
        },
        {
          "indexed": false,
          "internalType": "uint256",
          "name": "x",
          "type": "uint256"
        },
        {
          "indexed": true,
          "internalType": "address",
          "name": "y",
          "type": "address"
        }
      ],
      "name": "EReceivedCollectibleByCustomer",
      "type": "event"
    },
    {
      "anonymous": false,
      "inputs": [
        {
          "indexed": true,
          "internalType": "uint256",
          "name": "uin",
          "type": "uint256"
        },
        {
          "indexed": false,
          "internalType": "uint256",
          "name": "x",
          "type": "uint256"
        },
        {
          "indexed": true,
          "internalType": "address",
          "name": "y",
          "type": "address"
        },
        {
          "indexed": true,
          "internalType": "address",
          "name": "z",
          "type": "address"
        }
      ],
      "name": "EShippedByDistributor",
      "type": "event"
    },
    {
      "anonymous": false,
      "inputs": [
        {
          "indexed": true,
          "internalType": "uint256",
          "name": "uin",
          "type": "uint256"
        },
        {
          "indexed": false,
          "internalType": "uint256",
          "name": "x",
          "type": "uint256"
        },
        {
          "indexed": true,
          "internalType": "address",
          "name": "y",
          "type": "address"
        },
        {
          "indexed": true,
          "internalType": "address",
          "name": "z",
          "type": "address"
        }
      ],
      "name": "EShippedByManufacturer",
      "type": "event"
    },
    {
      "anonymous": false,
      "inputs": [
        {
          "indexed": true,
          "internalType": "uint256",
          "name": "uin",
          "type": "uint256"
        },
        {
          "indexed": false,
          "internalType": "uint256",
          "name": "x",
          "type": "uint256"
        },
        {
          "indexed": true,
          "internalType": "address",
          "name": "y",
          "type": "address"
        },
        {
          "indexed": true,
          "internalType": "address",
          "name": "z",
          "type": "address"
        }
      ],
      "name": "EShippedByRetailer",
      "type": "event"
    },
    {
      "anonymous": false,
      "inputs": [
        {
          "indexed": true,
          "internalType": "uint256",
          "name": "uin",
          "type": "uint256"
        },
        {
          "indexed": false,
          "internalType": "uint256",
          "name": "x",
          "type": "uint256"
        },
        {
          "indexed": true,
          "internalType": "address",
          "name": "y",
          "type": "address"
        },
        {
          "indexed": true,
          "internalType": "address",
          "name": "z",
          "type": "address"
        }
      ],
      "name": "EShippedtheCollectibleByCustomer",
      "type": "event"
    },
    {
      "anonymous": false,
      "inputs": [
        {
          "indexed": true,
          "internalType": "address",
          "name": "account",
          "type": "address"
        }
      ],
      "name": "ManufacturerAdded",
      "type": "event"
    },
    {
      "anonymous": false,
      "inputs": [
        {
          "indexed": true,
          "internalType": "address",
          "name": "account",
          "type": "address"
        }
      ],
      "name": "ManufacturerRemoved",
      "type": "event"
    },
    {
      "anonymous": false,
      "inputs": [
        {
          "indexed": true,
          "internalType": "address",
          "name": "account",
          "type": "address"
        }
      ],
      "name": "ManufacturerReported",
      "type": "event"
    },
    {
      "anonymous": false,
      "inputs": [
        {
          "indexed": true,
          "internalType": "address",
          "name": "account",
          "type": "address"
        }
      ],
      "name": "ManufacturerUnreported",
      "type": "event"
    },
    {
      "anonymous": false,
      "inputs": [
        {
          "indexed": true,
          "internalType": "address",
          "name": "account",
          "type": "address"
        }
      ],
      "name": "RetailerAdded",
      "type": "event"
    },
    {
      "anonymous": false,
      "inputs": [
        {
          "indexed": true,
          "internalType": "address",
          "name": "account",
          "type": "address"
        }
      ],
      "name": "RetailerRemoved",
      "type": "event"
    },
    {
      "anonymous": false,
      "inputs": [
        {
          "indexed": true,
          "internalType": "address",
          "name": "account",
          "type": "address"
        }
      ],
      "name": "RetailerReported",
      "type": "event"
    },
    {
      "anonymous": false,
      "inputs": [
        {
          "indexed": true,
          "internalType": "address",
          "name": "account",
          "type": "address"
        }
      ],
      "name": "RetailerUnreported",
      "type": "event"
    },
    {
      "inputs": [
        {
          "internalType": "address",
          "name": "account",
          "type": "address"
        }
      ],
      "name": "addConsumer",
      "outputs": [],
      "stateMutability": "nonpayable",
      "type": "function"
    },
    {
      "inputs": [
        {
          "internalType": "address",
          "name": "account",
          "type": "address"
        }
      ],
      "name": "addDistributor",
      "outputs": [],
      "stateMutability": "nonpayable",
      "type": "function"
    },
    {
      "inputs": [
        {
          "internalType": "address",
          "name": "account",
          "type": "address"
        }
      ],
      "name": "addManufacturer",
      "outputs": [],
      "stateMutability": "nonpayable",
      "type": "function"
    },
    {
      "inputs": [
        {
          "internalType": "address",
          "name": "account",
          "type": "address"
        }
      ],
      "name": "addRetailer",
      "outputs": [],
      "stateMutability": "nonpayable",
      "type": "function"
    },
    {
      "inputs": [
        {
          "internalType": "address",
          "name": "account",
          "type": "address"
        }
      ],
      "name": "isConsumer",
      "outputs": [
        {
          "internalType": "bool",
          "name": "",
          "type": "bool"
        }
      ],
      "stateMutability": "view",
      "type": "function",
      "constant": true
    },
    {
      "inputs": [
        {
          "internalType": "address",
          "name": "account",
          "type": "address"
        }
      ],
      "name": "isDistributor",
      "outputs": [
        {
          "internalType": "bool",
          "name": "",
          "type": "bool"
        }
      ],
      "stateMutability": "view",
      "type": "function",
      "constant": true
    },
    {
      "inputs": [
        {
          "internalType": "address",
          "name": "account",
          "type": "address"
        }
      ],
      "name": "isManufacturer",
      "outputs": [
        {
          "internalType": "bool",
          "name": "",
          "type": "bool"
        }
      ],
      "stateMutability": "view",
      "type": "function",
      "constant": true
    },
    {
      "inputs": [
        {
          "internalType": "address",
          "name": "account",
          "type": "address"
        }
      ],
      "name": "isRetailer",
      "outputs": [
        {
          "internalType": "bool",
          "name": "",
          "type": "bool"
        }
      ],
      "stateMutability": "view",
      "type": "function",
      "constant": true
    },
    {
      "inputs": [
        {
          "internalType": "address",
          "name": "account",
          "type": "address"
        }
      ],
      "name": "reportConsumer",
      "outputs": [],
      "stateMutability": "nonpayable",
      "type": "function"
    },
    {
      "inputs": [
        {
          "internalType": "address",
          "name": "account",
          "type": "address"
        }
      ],
      "name": "reportDistributor",
      "outputs": [],
      "stateMutability": "nonpayable",
      "type": "function"
    },
    {
      "inputs": [
        {
          "internalType": "address",
          "name": "account",
          "type": "address"
        }
      ],
      "name": "reportManufacturer",
      "outputs": [],
      "stateMutability": "nonpayable",
      "type": "function"
    },
    {
      "inputs": [
        {
          "internalType": "address",
          "name": "account",
          "type": "address"
        }
      ],
      "name": "reportRetailer",
      "outputs": [],
      "stateMutability": "nonpayable",
      "type": "function"
    },
    {
      "inputs": [
        {
          "internalType": "address",
          "name": "account",
          "type": "address"
        }
      ],
      "name": "unreportConsumer",
      "outputs": [],
      "stateMutability": "nonpayable",
      "type": "function"
    },
    {
      "inputs": [
        {
          "internalType": "address",
          "name": "account",
          "type": "address"
        }
      ],
      "name": "unreportDistributor",
      "outputs": [],
      "stateMutability": "nonpayable",
      "type": "function"
    },
    {
      "inputs": [
        {
          "internalType": "address",
          "name": "account",
          "type": "address"
        }
      ],
      "name": "unreportManufacturer",
      "outputs": [],
      "stateMutability": "nonpayable",
      "type": "function"
    },
    {
      "inputs": [
        {
          "internalType": "address",
          "name": "account",
          "type": "address"
        }
      ],
      "name": "unreportRetailer",
      "outputs": [],
      "stateMutability": "nonpayable",
      "type": "function"
    },
    {
      "inputs": [],
      "name": "getEntity",
      "outputs": [
        {
          "internalType": "uint256",
          "name": "",
          "type": "uint256"
        }
      ],
      "stateMutability": "view",
      "type": "function",
      "constant": true
    },
    {
      "inputs": [
        {
          "internalType": "string",
          "name": "_ProductName",
          "type": "string"
        },
        {
          "internalType": "string",
          "name": "_ProductDesc",
          "type": "string"
        },
        {
          "internalType": "string",
          "name": "_ProductType",
          "type": "string"
        },
        {
          "internalType": "bool",
          "name": "_collectible",
          "type": "bool"
        },
        {
          "internalType": "uint256",
          "name": "weight",
          "type": "uint256"
        }
      ],
      "name": "producebymanufacturer",
      "outputs": [
        {
          "internalType": "uint256",
          "name": "",
          "type": "uint256"
        }
      ],
      "stateMutability": "nonpayable",
      "type": "function"
    },
    {
      "inputs": [
        {
          "internalType": "uint256",
          "name": "uin",
          "type": "uint256"
        },
        {
          "internalType": "uint256",
          "name": "price",
          "type": "uint256"
        }
      ],
      "name": "forsalebymanufacturer",
      "outputs": [],
      "stateMutability": "nonpayable",
      "type": "function"
    },
    {
      "inputs": [
        {
          "internalType": "uint256",
          "name": "uin",
          "type": "uint256"
        },
        {
          "internalType": "address payable",
          "name": "shipTo",
          "type": "address"
        }
      ],
      "name": "shippedbymanufacturer",
      "outputs": [],
      "stateMutability": "nonpayable",
      "type": "function"
    },
    {
      "inputs": [
        {
          "internalType": "uint256",
          "name": "uin",
          "type": "uint256"
        }
      ],
      "name": "receivedbydistributor",
      "outputs": [],
      "stateMutability": "payable",
      "type": "function",
      "payable": true
    },
    {
      "inputs": [
        {
          "internalType": "uint256",
          "name": "uin",
          "type": "uint256"
        },
        {
          "internalType": "uint256",
          "name": "price",
          "type": "uint256"
        }
      ],
      "name": "forsalebydistributor",
      "outputs": [],
      "stateMutability": "nonpayable",
      "type": "function"
    },
    {
      "inputs": [
        {
          "internalType": "uint256",
          "name": "uin",
          "type": "uint256"
        },
        {
          "internalType": "address payable",
          "name": "shipTo",
          "type": "address"
        }
      ],
      "name": "shippedbydistributor",
      "outputs": [],
      "stateMutability": "nonpayable",
      "type": "function"
    },
    {
      "inputs": [
        {
          "internalType": "uint256",
          "name": "uin",
          "type": "uint256"
        }
      ],
      "name": "receivedbyretailer",
      "outputs": [],
      "stateMutability": "payable",
      "type": "function",
      "payable": true
    },
    {
      "inputs": [
        {
          "internalType": "uint256",
          "name": "uin",
          "type": "uint256"
        },
        {
          "internalType": "uint256",
          "name": "price",
          "type": "uint256"
        }
      ],
      "name": "forsalebyretailer",
      "outputs": [],
      "stateMutability": "nonpayable",
      "type": "function"
    },
    {
      "inputs": [
        {
          "internalType": "uint256",
          "name": "uin",
          "type": "uint256"
        },
        {
          "internalType": "address payable",
          "name": "shipTo",
          "type": "address"
        }
      ],
      "name": "shippedbyretailer",
      "outputs": [],
      "stateMutability": "nonpayable",
      "type": "function"
    },
    {
      "inputs": [
        {
          "internalType": "uint256",
          "name": "uin",
          "type": "uint256"
        }
      ],
      "name": "receivedbycustomer",
      "outputs": [],
      "stateMutability": "payable",
      "type": "function",
      "payable": true
    },
    {
      "inputs": [
        {
          "internalType": "uint256",
          "name": "uin",
          "type": "uint256"
        },
        {
          "internalType": "uint256",
          "name": "price",
          "type": "uint256"
        }
      ],
      "name": "collectibleforsalebycustomer",
      "outputs": [],
      "stateMutability": "nonpayable",
      "type": "function"
    },
    {
      "inputs": [
        {
          "internalType": "uint256",
          "name": "uin",
          "type": "uint256"
        },
        {
          "internalType": "address payable",
          "name": "ShipTo",
          "type": "address"
        }
      ],
      "name": "shippedcollectiblebycustomer",
      "outputs": [],
      "stateMutability": "nonpayable",
      "type": "function"
    },
    {
      "inputs": [
        {
          "internalType": "uint256",
          "name": "uin",
          "type": "uint256"
        }
      ],
      "name": "receivedcollectiblebycustomer",
      "outputs": [],
      "stateMutability": "payable",
      "type": "function",
      "payable": true
    },
    {
      "inputs": [
        {
          "internalType": "uint256",
          "name": "uin",
          "type": "uint256"
        }
      ],
      "name": "productDetail",
      "outputs": [
        {
          "internalType": "uint256",
          "name": "",
          "type": "uint256"
        },
        {
          "internalType": "string",
          "name": "",
          "type": "string"
        },
        {
          "internalType": "string",
          "name": "",
          "type": "string"
        },
        {
          "internalType": "address",
          "name": "",
          "type": "address"
        },
        {
          "internalType": "address",
          "name": "",
          "type": "address"
        },
        {
          "internalType": "uint256",
          "name": "",
          "type": "uint256"
        },
        {
          "internalType": "uint256",
          "name": "",
          "type": "uint256"
        }
      ],
      "stateMutability": "view",
      "type": "function",
      "constant": true
    },
    {
      "inputs": [
        {
          "internalType": "address",
          "name": "z",
          "type": "address"
        }
      ],
      "name": "x",
      "outputs": [
        {
          "components": [
            {
              "internalType": "uint256",
              "name": "uin",
              "type": "uint256"
            },
            {
              "internalType": "string",
              "name": "productName",
              "type": "string"
            },
            {
              "internalType": "string",
              "name": "productType",
              "type": "string"
            },
            {
              "internalType": "string",
              "name": "productDescription",
              "type": "string"
            },
            {
              "internalType": "address payable",
              "name": "manufacturerId",
              "type": "address"
            },
            {
              "internalType": "address payable",
              "name": "CurrentOwner",
              "type": "address"
            },
            {
              "internalType": "address payable",
              "name": "ShipTo",
              "type": "address"
            },
            {
              "internalType": "uint256",
              "name": "productDate",
              "type": "uint256"
            },
            {
              "internalType": "bool",
              "name": "collectible",
              "type": "bool"
            },
            {
              "internalType": "bool",
              "name": "composite",
              "type": "bool"
            },
            {
              "internalType": "bool",
              "name": "visibility",
              "type": "bool"
            },
            {
              "internalType": "uint256",
              "name": "weight",
              "type": "uint256"
            },
            {
              "internalType": "uint256",
              "name": "productPrice",
              "type": "uint256"
            },
            {
              "internalType": "uint256",
              "name": "productHash",
              "type": "uint256"
            },
            {
              "internalType": "enum SupplyChain.State",
              "name": "productState",
              "type": "uint8"
            }
          ],
          "internalType": "struct SupplyChain.Item[]",
          "name": "",
          "type": "tuple[]"
        }
      ],
      "stateMutability": "view",
      "type": "function",
      "constant": true
    },
    {
      "inputs": [
        {
          "internalType": "address",
          "name": "z",
          "type": "address"
        }
      ],
      "name": "y",
      "outputs": [
        {
          "components": [
            {
              "internalType": "uint256",
              "name": "uin",
              "type": "uint256"
            },
            {
              "internalType": "string",
              "name": "productName",
              "type": "string"
            },
            {
              "internalType": "string",
              "name": "productType",
              "type": "string"
            },
            {
              "internalType": "string",
              "name": "productDescription",
              "type": "string"
            },
            {
              "internalType": "address payable",
              "name": "manufacturerId",
              "type": "address"
            },
            {
              "internalType": "address payable",
              "name": "CurrentOwner",
              "type": "address"
            },
            {
              "internalType": "address payable",
              "name": "ShipTo",
              "type": "address"
            },
            {
              "internalType": "uint256",
              "name": "productDate",
              "type": "uint256"
            },
            {
              "internalType": "bool",
              "name": "collectible",
              "type": "bool"
            },
            {
              "internalType": "bool",
              "name": "composite",
              "type": "bool"
            },
            {
              "internalType": "bool",
              "name": "visibility",
              "type": "bool"
            },
            {
              "internalType": "uint256",
              "name": "weight",
              "type": "uint256"
            },
            {
              "internalType": "uint256",
              "name": "productPrice",
              "type": "uint256"
            },
            {
              "internalType": "uint256",
              "name": "productHash",
              "type": "uint256"
            },
            {
              "internalType": "enum SupplyChain.State",
              "name": "productState",
              "type": "uint8"
            }
          ],
          "internalType": "struct SupplyChain.Item[]",
          "name": "",
          "type": "tuple[]"
        }
      ],
      "stateMutability": "view",
      "type": "function",
      "constant": true
    }
  ],
  "bytecode": "0x60806040526000600d5534801561001557600080fd5b50336000806101000a81548173ffffffffffffffffffffffffffffffffffffffff021916908373ffffffffffffffffffffffffffffffffffffffff1602179055506155e080620000666000396000f3fe6080604052600436106101ee5760003560e01c80638ec4f5051161010d578063b4bdb425116100a0578063ee6197cb1161006f578063ee6197cb146106b9578063f037e4e3146106e2578063f1b7f9ce1461071f578063f8bd330b1461075c578063ff200d2b14610785576101ee565b8063b4bdb4251461060e578063c97128cb14610637578063d9589fd114610674578063e4e376a414610690576101ee565b80639e76a293116100dc5780639e76a2931461056a578063a3cb25e114610593578063a4b2e157146105bc578063b2c89009146105e5576101ee565b80638ec4f505146104cc5780638f0c86fa146104f55780639331829714610532578063989687941461054e576101ee565b806352931de8116101855780637250e224116101545780637250e2241461041457806375dcdeb11461043d57806381d2e95c14610466578063834ff7391461048f576101ee565b806352931de81461036957806355cf64b4146103925780635da09b88146103ae5780635f8a5afa146103eb576101ee565b8063250bb38c116101c1578063250bb38c146102ab5780632b182379146102d45780632c5ee9bf146102fd57806342f3588514610326576101ee565b806301b8a64e146101f35780630fd22c841461021c578063112940f91461024557806317d4a4911461026e575b600080fd5b3480156101ff57600080fd5b5061021a60048036038101906102159190614942565b6107b0565b005b34801561022857600080fd5b50610243600480360381019061023e91906149e0565b6108c9565b005b34801561025157600080fd5b5061026c600480360381019061026791906149e0565b6108d5565b005b34801561027a57600080fd5b50610295600480360381019061029091906149e0565b610939565b6040516102a29190614a28565b60405180910390f35b3480156102b757600080fd5b506102d260048036038101906102cd9190614a81565b610956565b005b3480156102e057600080fd5b506102fb60048036038101906102f69190614a81565b610c28565b005b34801561030957600080fd5b50610324600480360381019061031f91906149e0565b610efa565b005b34801561033257600080fd5b5061034d60048036038101906103489190614ac1565b610f06565b6040516103609796959493929190614ba5565b60405180910390f35b34801561037557600080fd5b50610390600480360381019061038b91906149e0565b611121565b005b6103ac60048036038101906103a79190614ac1565b61112d565b005b3480156103ba57600080fd5b506103d560048036038101906103d091906149e0565b6115ad565b6040516103e29190614a28565b60405180910390f35b3480156103f757600080fd5b50610412600480360381019061040d91906149e0565b6115ca565b005b34801561042057600080fd5b5061043b600480360381019061043691906149e0565b61162e565b005b34801561044957600080fd5b50610464600480360381019061045f91906149e0565b611692565b005b34801561047257600080fd5b5061048d600480360381019061048891906149e0565b61169e565b005b34801561049b57600080fd5b506104b660048036038101906104b191906149e0565b6116aa565b6040516104c39190614a28565b60405180910390f35b3480156104d857600080fd5b506104f360048036038101906104ee91906149e0565b6116c7565b005b34801561050157600080fd5b5061051c600480360381019061051791906149e0565b61172b565b6040516105299190614a28565b60405180910390f35b61054c60048036038101906105479190614ac1565b611748565b005b61056860048036038101906105639190614ac1565b611bfe565b005b34801561057657600080fd5b50610591600480360381019061058c9190614a81565b612069565b005b34801561059f57600080fd5b506105ba60048036038101906105b591906149e0565b61233b565b005b3480156105c857600080fd5b506105e360048036038101906105de9190614942565b612347565b005b3480156105f157600080fd5b5061060c60048036038101906106079190614942565b61248f565b005b34801561061a57600080fd5b5061063560048036038101906106309190614942565b61260c565b005b34801561064357600080fd5b5061065e600480360381019061065991906149e0565b612754565b60405161066b9190614f23565b60405180910390f35b61068e60048036038101906106899190614ac1565b612c77565b005b34801561069c57600080fd5b506106b760048036038101906106b291906149e0565b6130e2565b005b3480156106c557600080fd5b506106e060048036038101906106db9190614a81565b6130ee565b005b3480156106ee57600080fd5b50610709600480360381019061070491906149e0565b6133c0565b6040516107169190614f23565b60405180910390f35b34801561072b57600080fd5b50610746600480360381019061074191906150a6565b6138e3565b6040516107539190615175565b60405180910390f35b34801561076857600080fd5b50610783600480360381019061077e91906149e0565b613cf7565b005b34801561079157600080fd5b5061079a613d03565b6040516107a79190615175565b60405180910390f35b336107ba816115ad565b6107c357600080fd5b826006600c8111156107d8576107d7614cc5565b5b600a6000838152602001908152602001600020600c0160009054906101000a900460ff16600c81111561080e5761080d614cc5565b5b1461081857600080fd5b6007600a6000868152602001908152602001600020600c0160006101000a81548160ff0219169083600c81111561085257610851614cc5565b5b021790555082600a6000868152602001908152602001600020600a01819055503373ffffffffffffffffffffffffffffffffffffffff16847f5deefb19e7e549a7e04121977fe61c27d9d2842fe25f92cec6ab2d9dfbb8cffe42866040516108bb929190615190565b60405180910390a350505050565b6108d281613d69565b50565b3373ffffffffffffffffffffffffffffffffffffffff1660008054906101000a900473ffffffffffffffffffffffffffffffffffffffff1673ffffffffffffffffffffffffffffffffffffffff161461092d57600080fd5b61093681613dc3565b50565b600061094f826005613e1d90919063ffffffff16565b9050919050565b33610960816116aa565b61096957600080fd5b81610973816116aa565b61097c57600080fd5b83600a600c81111561099157610990614cc5565b5b600a6000838152602001908152602001600020600c0160009054906101000a900460ff16600c8111156109c7576109c6614cc5565b5b146109d157600080fd5b600b600a6000878152602001908152602001600020600c0160006101000a81548160ff0219169083600c811115610a0b57610a0a614cc5565b5b021790555083600a600087815260200190815260200160002060060160006101000a81548173ffffffffffffffffffffffffffffffffffffffff021916908373ffffffffffffffffffffffffffffffffffffffff160217905550600c60008573ffffffffffffffffffffffffffffffffffffffff1673ffffffffffffffffffffffffffffffffffffffff1681526020019081526020016000206000016000815480929190610ab8906151e8565b9190505550600c60008573ffffffffffffffffffffffffffffffffffffffff1673ffffffffffffffffffffffffffffffffffffffff16815260200190815260200160002060010185908060018154018082558091505060019003906000526020600020016000909190919091505584600a600087815260200190815260200160002060050160009054906101000a900473ffffffffffffffffffffffffffffffffffffffff1685600a6000898152602001908152602001600020600101604051602001610b88949392919061539a565b6040516020818303038152906040528051906020012060001c600a6000878152602001908152602001600020600b01819055508373ffffffffffffffffffffffffffffffffffffffff163373ffffffffffffffffffffffffffffffffffffffff16867fc188b500118c60ef4779ac03c68763ffbdb2be1f6c016872c9e9db545cd7c92f42604051610c199190615175565b60405180910390a45050505050565b33610c32816115ad565b610c3b57600080fd5b81610c45816116aa565b610c4e57600080fd5b836007600c811115610c6357610c62614cc5565b5b600a6000838152602001908152602001600020600c0160009054906101000a900460ff16600c811115610c9957610c98614cc5565b5b14610ca357600080fd5b6008600a6000878152602001908152602001600020600c0160006101000a81548160ff0219169083600c811115610cdd57610cdc614cc5565b5b021790555083600a600087815260200190815260200160002060060160006101000a81548173ffffffffffffffffffffffffffffffffffffffff021916908373ffffffffffffffffffffffffffffffffffffffff160217905550600c60008573ffffffffffffffffffffffffffffffffffffffff1673ffffffffffffffffffffffffffffffffffffffff1681526020019081526020016000206000016000815480929190610d8a906151e8565b9190505550600c60008573ffffffffffffffffffffffffffffffffffffffff1673ffffffffffffffffffffffffffffffffffffffff16815260200190815260200160002060010185908060018154018082558091505060019003906000526020600020016000909190919091505584600a600087815260200190815260200160002060050160009054906101000a900473ffffffffffffffffffffffffffffffffffffffff1685600a6000898152602001908152602001600020600101604051602001610e5a949392919061539a565b6040516020818303038152906040528051906020012060001c600a6000878152602001908152602001600020600b01819055508373ffffffffffffffffffffffffffffffffffffffff163373ffffffffffffffffffffffffffffffffffffffff16867fff4edcb43f0794bbff4e154b1d284970e59c24e8100f6439c1cecaf0b87eb09042604051610eeb9190615175565b60405180910390a45050505050565b610f0381613eaf565b50565b6000606080600080600080600a600089815260200190815260200160002060000154600a60008a8152602001908152602001600020600101600a60008b8152602001908152602001600020600301600a60008c815260200190815260200160002060040160009054906101000a900473ffffffffffffffffffffffffffffffffffffffff16600a60008d815260200190815260200160002060050160009054906101000a900473ffffffffffffffffffffffffffffffffffffffff16600a60008e815260200190815260200160002060070154600a60008f8152602001908152602001600020600a0154858054610ffc906152c9565b80601f0160208091040260200160405190810160405280929190818152602001828054611028906152c9565b80156110755780601f1061104a57610100808354040283529160200191611075565b820191906000526020600020905b81548152906001019060200180831161105857829003601f168201915b50505050509550848054611088906152c9565b80601f01602080910402602001604051908101604052809291908181526020018280546110b4906152c9565b80156111015780601f106110d657610100808354040283529160200191611101565b820191906000526020600020905b8154815290600101906020018083116110e457829003601f168201915b505050505094509650965096509650965096509650919395979092949650565b61112a81613f09565b50565b336111378161172b565b61114057600080fd5b600a6000838152602001908152602001600020600a01548034101561116457600080fd5b826002600c81111561117957611178614cc5565b5b600a6000838152602001908152602001600020600c0160009054906101000a900460ff16600c8111156111af576111ae614cc5565b5b146111b957600080fd5b8380600a600083815260200190815260200160002060050160009054906101000a900473ffffffffffffffffffffffffffffffffffffffff1633600a600085815260200190815260200160002060010160405160200161121c949392919061540d565b6040516020818303038152906040528051906020012060001c600a6000838152602001908152602001600020600b01541461125657600080fd5b6003600a6000878152602001908152602001600020600c0160006101000a81548160ff0219169083600c8111156112905761128f614cc5565b5b02179055506000600a600087815260200190815260200160002060080160026101000a81548160ff021916908315150217905550600a600086815260200190815260200160002060050160009054906101000a900473ffffffffffffffffffffffffffffffffffffffff1673ffffffffffffffffffffffffffffffffffffffff166108fc600a6000888152602001908152602001600020600a01549081150290604051600060405180830381858888f19350505050158015611356573d6000803e3d6000fd5b5061139785600a600088815260200190815260200160002060050160009054906101000a900473ffffffffffffffffffffffffffffffffffffffff16613f63565b600b6000600a600088815260200190815260200160002060050160009054906101000a900473ffffffffffffffffffffffffffffffffffffffff1673ffffffffffffffffffffffffffffffffffffffff1673ffffffffffffffffffffffffffffffffffffffff168152602001908152602001600020600001600081548092919061142090615457565b919050555033600a600087815260200190815260200160002060050160006101000a81548173ffffffffffffffffffffffffffffffffffffffff021916908373ffffffffffffffffffffffffffffffffffffffff1602179055506000600a6000878152602001908152602001600020600a0181905550600b60003373ffffffffffffffffffffffffffffffffffffffff1673ffffffffffffffffffffffffffffffffffffffff16815260200190815260200160002060000160008154809291906114e9906151e8565b9190505550600b60003373ffffffffffffffffffffffffffffffffffffffff1673ffffffffffffffffffffffffffffffffffffffff1681526020019081526020016000206001018590806001815401808255809150506001900390600052602060002001600090919091909150553373ffffffffffffffffffffffffffffffffffffffff16857f28d2d7e57b87b5cd5e17a265773ce73b97b3d2e4595bc6239f69bb0915536d594260405161159e9190615175565b60405180910390a35050505050565b60006115c3826001613e1d90919063ffffffff16565b9050919050565b3373ffffffffffffffffffffffffffffffffffffffff1660008054906101000a900473ffffffffffffffffffffffffffffffffffffffff1673ffffffffffffffffffffffffffffffffffffffff161461162257600080fd5b61162b816141fb565b50565b3373ffffffffffffffffffffffffffffffffffffffff1660008054906101000a900473ffffffffffffffffffffffffffffffffffffffff1673ffffffffffffffffffffffffffffffffffffffff161461168657600080fd5b61168f81614255565b50565b61169b816142af565b50565b6116a781614309565b50565b60006116c0826003613e1d90919063ffffffff16565b9050919050565b3373ffffffffffffffffffffffffffffffffffffffff1660008054906101000a900473ffffffffffffffffffffffffffffffffffffffff1673ffffffffffffffffffffffffffffffffffffffff161461171f57600080fd5b61172881614363565b50565b6000611741826007613e1d90919063ffffffff16565b9050919050565b33611752816116aa565b61175b57600080fd5b8160011515600a600083815260200190815260200160002060080160009054906101000a900460ff1615151461179057600080fd5b600a6000848152602001908152602001600020600a0154803410156117b457600080fd5b83600b600c8111156117c9576117c8614cc5565b5b600a6000838152602001908152602001600020600c0160009054906101000a900460ff16600c8111156117ff576117fe614cc5565b5b1461180957600080fd5b8480600a600083815260200190815260200160002060050160009054906101000a900473ffffffffffffffffffffffffffffffffffffffff1633600a600085815260200190815260200160002060010160405160200161186c949392919061540d565b6040516020818303038152906040528051906020012060001c600a6000838152602001908152602001600020600b0154146118a657600080fd5b600c600a6000888152602001908152602001600020600c0160006101000a81548160ff0219169083600c8111156118e0576118df614cc5565b5b02179055506000600a600088815260200190815260200160002060080160026101000a81548160ff021916908315150217905550600a600087815260200190815260200160002060050160009054906101000a900473ffffffffffffffffffffffffffffffffffffffff1673ffffffffffffffffffffffffffffffffffffffff166108fc600a6000898152602001908152602001600020600a01549081150290604051600060405180830381858888f193505050501580156119a6573d6000803e3d6000fd5b50600b6000600a600089815260200190815260200160002060050160009054906101000a900473ffffffffffffffffffffffffffffffffffffffff1673ffffffffffffffffffffffffffffffffffffffff1673ffffffffffffffffffffffffffffffffffffffff1681526020019081526020016000206000016000815480929190611a3090615457565b9190505550611a7586600a600089815260200190815260200160002060050160009054906101000a900473ffffffffffffffffffffffffffffffffffffffff16613f63565b33600a600088815260200190815260200160002060050160006101000a81548173ffffffffffffffffffffffffffffffffffffffff021916908373ffffffffffffffffffffffffffffffffffffffff1602179055506000600a6000888152602001908152602001600020600a0181905550600b60003373ffffffffffffffffffffffffffffffffffffffff1673ffffffffffffffffffffffffffffffffffffffff1681526020019081526020016000206000016000815480929190611b39906151e8565b9190505550600b60003373ffffffffffffffffffffffffffffffffffffffff1673ffffffffffffffffffffffffffffffffffffffff1681526020019081526020016000206001018690806001815401808255809150506001900390600052602060002001600090919091909150553373ffffffffffffffffffffffffffffffffffffffff16867fab24060fff978f4fefd01f7c5907e6b14f60d643e4c578a1cc8b17299cff134042604051611bee9190615175565b60405180910390a3505050505050565b33611c08816116aa565b611c1157600080fd5b600a6000838152602001908152602001600020600a015480341015611c3557600080fd5b826008600c811115611c4a57611c49614cc5565b5b600a6000838152602001908152602001600020600c0160009054906101000a900460ff16600c811115611c8057611c7f614cc5565b5b14611c8a57600080fd5b8380600a600083815260200190815260200160002060050160009054906101000a900473ffffffffffffffffffffffffffffffffffffffff1633600a6000858152602001908152602001600020600101604051602001611ced949392919061540d565b6040516020818303038152906040528051906020012060001c600a6000838152602001908152602001600020600b015414611d2757600080fd5b6009600a6000878152602001908152602001600020600c0160006101000a81548160ff0219169083600c811115611d6157611d60614cc5565b5b02179055506000600a600087815260200190815260200160002060080160026101000a81548160ff021916908315150217905550600a600086815260200190815260200160002060050160009054906101000a900473ffffffffffffffffffffffffffffffffffffffff1673ffffffffffffffffffffffffffffffffffffffff166108fc600a6000888152602001908152602001600020600a01549081150290604051600060405180830381858888f19350505050158015611e27573d6000803e3d6000fd5b50600b6000600a600088815260200190815260200160002060050160009054906101000a900473ffffffffffffffffffffffffffffffffffffffff1673ffffffffffffffffffffffffffffffffffffffff1673ffffffffffffffffffffffffffffffffffffffff1681526020019081526020016000206000016000815480929190611eb190615457565b9190505550611ef685600a600088815260200190815260200160002060050160009054906101000a900473ffffffffffffffffffffffffffffffffffffffff16613f63565b33600a600087815260200190815260200160002060050160006101000a81548173ffffffffffffffffffffffffffffffffffffffff021916908373ffffffffffffffffffffffffffffffffffffffff1602179055506000600a6000878152602001908152602001600020600a0181905550600b60003373ffffffffffffffffffffffffffffffffffffffff1673ffffffffffffffffffffffffffffffffffffffff1681526020019081526020016000206000016000815480929190611fba906151e8565b9190505550600b60003373ffffffffffffffffffffffffffffffffffffffff1673ffffffffffffffffffffffffffffffffffffffff168152602001908152602001600020600101859080600181540180825580915050600190039060005260206000200160009091909190915055847f0d607424e7c8d7272e3adc76ab8e220c0de7a8c179d358e62ac8b7b22a557922423360405161205a929190615481565b60405180910390a25050505050565b3361207381610939565b61207c57600080fd5b816120868161172b565b61208f57600080fd5b836001600c8111156120a4576120a3614cc5565b5b600a6000838152602001908152602001600020600c0160009054906101000a900460ff16600c8111156120da576120d9614cc5565b5b146120e457600080fd5b6002600a6000878152602001908152602001600020600c0160006101000a81548160ff0219169083600c81111561211e5761211d614cc5565b5b021790555083600a600087815260200190815260200160002060060160006101000a81548173ffffffffffffffffffffffffffffffffffffffff021916908373ffffffffffffffffffffffffffffffffffffffff160217905550600c60008573ffffffffffffffffffffffffffffffffffffffff1673ffffffffffffffffffffffffffffffffffffffff16815260200190815260200160002060000160008154809291906121cb906151e8565b9190505550600c60008573ffffffffffffffffffffffffffffffffffffffff1673ffffffffffffffffffffffffffffffffffffffff16815260200190815260200160002060010185908060018154018082558091505060019003906000526020600020016000909190919091505584600a600087815260200190815260200160002060050160009054906101000a900473ffffffffffffffffffffffffffffffffffffffff1685600a600089815260200190815260200160002060010160405160200161229b949392919061539a565b6040516020818303038152906040528051906020012060001c600a6000878152602001908152602001600020600b01819055508373ffffffffffffffffffffffffffffffffffffffff163373ffffffffffffffffffffffffffffffffffffffff16867fef1cb90ab53defb050ecdf1bec6f745742f554e1b09526e39f960d571cd1f3bd4260405161232c9190615175565b60405180910390a45050505050565b612344816143bd565b50565b336123518161172b565b61235a57600080fd5b826003600c81111561236f5761236e614cc5565b5b600a6000838152602001908152602001600020600c0160009054906101000a900460ff16600c8111156123a5576123a4614cc5565b5b146123af57600080fd5b6001600a600086815260200190815260200160002060080160026101000a81548160ff0219169083151502179055506004600a6000868152602001908152602001600020600c0160006101000a81548160ff0219169083600c81111561241857612417614cc5565b5b021790555082600a6000868152602001908152602001600020600a01819055503373ffffffffffffffffffffffffffffffffffffffff16847f02b81c1405d612f3db14b449985a4aabdff28384bb7e12c5e4c4aa9fa1e9f9af4286604051612481929190615190565b60405180910390a350505050565b33612499816116aa565b6124a257600080fd5b826009600c8111156124b7576124b6614cc5565b5b600a6000838152602001908152602001600020600c0160009054906101000a900460ff16600c8111156124ed576124ec614cc5565b5b146124f757600080fd5b8360011515600a600083815260200190815260200160002060080160009054906101000a900460ff1615151461252c57600080fd5b600a806000878152602001908152602001600020600c0160006101000a81548160ff0219169083600c81111561256557612564614cc5565b5b021790555083600a6000878152602001908152602001600020600a01819055506001600a600087815260200190815260200160002060080160026101000a81548160ff0219169083151502179055503373ffffffffffffffffffffffffffffffffffffffff16857f15f96be6e4c7b03490c8220da8251fffd4f5f08ba5a8713a96c746c1b71d254742876040516125fd929190615190565b60405180910390a35050505050565b3361261681610939565b61261f57600080fd5b826000600c81111561263457612633614cc5565b5b600a6000838152602001908152602001600020600c0160009054906101000a900460ff16600c81111561266a57612669614cc5565b5b1461267457600080fd5b6001600a600086815260200190815260200160002060080160026101000a81548160ff0219169083151502179055506001600a6000868152602001908152602001600020600c0160006101000a81548160ff0219169083600c8111156126dd576126dc614cc5565b5b021790555082600a6000868152602001908152602001600020600a01819055503373ffffffffffffffffffffffffffffffffffffffff16847f191580e268a8474c31b11f8958417d1f71b35d25884cd5e49ab272d6faaa01b54286604051612746929190615190565b60405180910390a350505050565b60606000600c60008473ffffffffffffffffffffffffffffffffffffffff1673ffffffffffffffffffffffffffffffffffffffff1681526020019081526020016000206001018054905067ffffffffffffffff8111156127b7576127b6614f4f565b5b6040519080825280602002602001820160405280156127f057816020015b6127dd614785565b8152602001906001900390816127d55790505b50905060005b600c60008573ffffffffffffffffffffffffffffffffffffffff1673ffffffffffffffffffffffffffffffffffffffff16815260200190815260200160002060010180549050811015612c6d576000600a6000600c60008873ffffffffffffffffffffffffffffffffffffffff1673ffffffffffffffffffffffffffffffffffffffff168152602001908152602001600020600101848154811061289d5761289c6154aa565b5b90600052602060002001548152602001908152602001600020905080604051806101e0016040529081600082015481526020016001820180546128df906152c9565b80601f016020809104026020016040519081016040528092919081815260200182805461290b906152c9565b80156129585780601f1061292d57610100808354040283529160200191612958565b820191906000526020600020905b81548152906001019060200180831161293b57829003601f168201915b50505050508152602001600282018054612971906152c9565b80601f016020809104026020016040519081016040528092919081815260200182805461299d906152c9565b80156129ea5780601f106129bf576101008083540402835291602001916129ea565b820191906000526020600020905b8154815290600101906020018083116129cd57829003601f168201915b50505050508152602001600382018054612a03906152c9565b80601f0160208091040260200160405190810160405280929190818152602001828054612a2f906152c9565b8015612a7c5780601f10612a5157610100808354040283529160200191612a7c565b820191906000526020600020905b815481529060010190602001808311612a5f57829003601f168201915b505050505081526020016004820160009054906101000a900473ffffffffffffffffffffffffffffffffffffffff1673ffffffffffffffffffffffffffffffffffffffff1673ffffffffffffffffffffffffffffffffffffffff1681526020016005820160009054906101000a900473ffffffffffffffffffffffffffffffffffffffff1673ffffffffffffffffffffffffffffffffffffffff1673ffffffffffffffffffffffffffffffffffffffff1681526020016006820160009054906101000a900473ffffffffffffffffffffffffffffffffffffffff1673ffffffffffffffffffffffffffffffffffffffff1673ffffffffffffffffffffffffffffffffffffffff168152602001600782015481526020016008820160009054906101000a900460ff161515151581526020016008820160019054906101000a900460ff161515151581526020016008820160029054906101000a900460ff1615151515815260200160098201548152602001600a8201548152602001600b8201548152602001600c820160009054906101000a900460ff16600c811115612c2557612c24614cc5565b5b600c811115612c3757612c36614cc5565b5b81525050838381518110612c4e57612c4d6154aa565b5b6020026020010181905250508080612c65906151e8565b9150506127f6565b5080915050919050565b33612c81816115ad565b612c8a57600080fd5b600a6000838152602001908152602001600020600a015480341015612cae57600080fd5b826005600c811115612cc357612cc2614cc5565b5b600a6000838152602001908152602001600020600c0160009054906101000a900460ff16600c811115612cf957612cf8614cc5565b5b14612d0357600080fd5b8380600a600083815260200190815260200160002060050160009054906101000a900473ffffffffffffffffffffffffffffffffffffffff1633600a6000858152602001908152602001600020600101604051602001612d66949392919061540d565b6040516020818303038152906040528051906020012060001c600a6000838152602001908152602001600020600b015414612da057600080fd5b6006600a6000878152602001908152602001600020600c0160006101000a81548160ff0219169083600c811115612dda57612dd9614cc5565b5b02179055506000600a600087815260200190815260200160002060080160026101000a81548160ff021916908315150217905550600a600086815260200190815260200160002060050160009054906101000a900473ffffffffffffffffffffffffffffffffffffffff1673ffffffffffffffffffffffffffffffffffffffff166108fc600a6000888152602001908152602001600020600a01549081150290604051600060405180830381858888f19350505050158015612ea0573d6000803e3d6000fd5b50600b6000600a600088815260200190815260200160002060050160009054906101000a900473ffffffffffffffffffffffffffffffffffffffff1673ffffffffffffffffffffffffffffffffffffffff1673ffffffffffffffffffffffffffffffffffffffff1681526020019081526020016000206000016000815480929190612f2a90615457565b9190505550612f6f85600a600088815260200190815260200160002060050160009054906101000a900473ffffffffffffffffffffffffffffffffffffffff16613f63565b33600a600087815260200190815260200160002060050160006101000a81548173ffffffffffffffffffffffffffffffffffffffff021916908373ffffffffffffffffffffffffffffffffffffffff1602179055506000600a6000878152602001908152602001600020600a0181905550600b60003373ffffffffffffffffffffffffffffffffffffffff1673ffffffffffffffffffffffffffffffffffffffff1681526020019081526020016000206000016000815480929190613033906151e8565b9190505550600b60003373ffffffffffffffffffffffffffffffffffffffff1673ffffffffffffffffffffffffffffffffffffffff168152602001908152602001600020600101859080600181540180825580915050600190039060005260206000200160009091909190915055847f568f99bfa0294af6be0e3aafa4f1109a23175d03006f5e4341622b2e3ce5c1a442336040516130d3929190615481565b60405180910390a25050505050565b6130eb81614417565b50565b336130f88161172b565b61310157600080fd5b8161310b816115ad565b61311457600080fd5b836004600c81111561312957613128614cc5565b5b600a6000838152602001908152602001600020600c0160009054906101000a900460ff16600c81111561315f5761315e614cc5565b5b1461316957600080fd5b6005600a6000878152602001908152602001600020600c0160006101000a81548160ff0219169083600c8111156131a3576131a2614cc5565b5b021790555083600a600087815260200190815260200160002060060160006101000a81548173ffffffffffffffffffffffffffffffffffffffff021916908373ffffffffffffffffffffffffffffffffffffffff160217905550600c60008573ffffffffffffffffffffffffffffffffffffffff1673ffffffffffffffffffffffffffffffffffffffff1681526020019081526020016000206000016000815480929190613250906151e8565b9190505550600c60008573ffffffffffffffffffffffffffffffffffffffff1673ffffffffffffffffffffffffffffffffffffffff16815260200190815260200160002060010185908060018154018082558091505060019003906000526020600020016000909190919091505584600a600087815260200190815260200160002060050160009054906101000a900473ffffffffffffffffffffffffffffffffffffffff1685600a6000898152602001908152602001600020600101604051602001613320949392919061539a565b6040516020818303038152906040528051906020012060001c600a6000878152602001908152602001600020600b01819055508373ffffffffffffffffffffffffffffffffffffffff163373ffffffffffffffffffffffffffffffffffffffff16867ff0085f598ab3ac050dca19ea301994110bdc7e266c0baf0ac5d4604dadd913d2426040516133b19190615175565b60405180910390a45050505050565b60606000600b60008473ffffffffffffffffffffffffffffffffffffffff1673ffffffffffffffffffffffffffffffffffffffff1681526020019081526020016000206001018054905067ffffffffffffffff81111561342357613422614f4f565b5b60405190808252806020026020018201604052801561345c57816020015b613449614785565b8152602001906001900390816134415790505b50905060005b600b60008573ffffffffffffffffffffffffffffffffffffffff1673ffffffffffffffffffffffffffffffffffffffff168152602001908152602001600020600101805490508110156138d9576000600a6000600b60008873ffffffffffffffffffffffffffffffffffffffff1673ffffffffffffffffffffffffffffffffffffffff1681526020019081526020016000206001018481548110613509576135086154aa565b5b90600052602060002001548152602001908152602001600020905080604051806101e00160405290816000820154815260200160018201805461354b906152c9565b80601f0160208091040260200160405190810160405280929190818152602001828054613577906152c9565b80156135c45780601f10613599576101008083540402835291602001916135c4565b820191906000526020600020905b8154815290600101906020018083116135a757829003601f168201915b505050505081526020016002820180546135dd906152c9565b80601f0160208091040260200160405190810160405280929190818152602001828054613609906152c9565b80156136565780601f1061362b57610100808354040283529160200191613656565b820191906000526020600020905b81548152906001019060200180831161363957829003601f168201915b5050505050815260200160038201805461366f906152c9565b80601f016020809104026020016040519081016040528092919081815260200182805461369b906152c9565b80156136e85780601f106136bd576101008083540402835291602001916136e8565b820191906000526020600020905b8154815290600101906020018083116136cb57829003601f168201915b505050505081526020016004820160009054906101000a900473ffffffffffffffffffffffffffffffffffffffff1673ffffffffffffffffffffffffffffffffffffffff1673ffffffffffffffffffffffffffffffffffffffff1681526020016005820160009054906101000a900473ffffffffffffffffffffffffffffffffffffffff1673ffffffffffffffffffffffffffffffffffffffff1673ffffffffffffffffffffffffffffffffffffffff1681526020016006820160009054906101000a900473ffffffffffffffffffffffffffffffffffffffff1673ffffffffffffffffffffffffffffffffffffffff1673ffffffffffffffffffffffffffffffffffffffff168152602001600782015481526020016008820160009054906101000a900460ff161515151581526020016008820160019054906101000a900460ff161515151581526020016008820160029054906101000a900460ff1615151515815260200160098201548152602001600a8201548152602001600b8201548152602001600c820160009054906101000a900460ff16600c81111561389157613890614cc5565b5b600c8111156138a3576138a2614cc5565b5b815250508383815181106138ba576138b96154aa565b5b60200260200101819052505080806138d1906151e8565b915050613462565b5080915050919050565b6000336138ef81610939565b6138f857600080fd5b6000613902614471565b90506000339050604051806101e001604052808381526020018a81526020018881526020018981526020018273ffffffffffffffffffffffffffffffffffffffff1681526020018273ffffffffffffffffffffffffffffffffffffffff168152602001600073ffffffffffffffffffffffffffffffffffffffff168152602001428152602001871515815260200160001515815260200160001515815260200186815260200160008152602001600081526020016000600c8111156139ca576139c9614cc5565b5b815250600a6000848152602001908152602001600020600082015181600001556020820151816001019080519060200190613a06929190614855565b506040820151816002019080519060200190613a23929190614855565b506060820151816003019080519060200190613a40929190614855565b5060808201518160040160006101000a81548173ffffffffffffffffffffffffffffffffffffffff021916908373ffffffffffffffffffffffffffffffffffffffff16021790555060a08201518160050160006101000a81548173ffffffffffffffffffffffffffffffffffffffff021916908373ffffffffffffffffffffffffffffffffffffffff16021790555060c08201518160060160006101000a81548173ffffffffffffffffffffffffffffffffffffffff021916908373ffffffffffffffffffffffffffffffffffffffff16021790555060e082015181600701556101008201518160080160006101000a81548160ff0219169083151502179055506101208201518160080160016101000a81548160ff0219169083151502179055506101408201518160080160026101000a81548160ff021916908315150217905550610160820151816009015561018082015181600a01556101a082015181600b01556101c082015181600c0160006101000a81548160ff0219169083600c811115613bd057613bcf614cc5565b5b0217905550905050600b60008273ffffffffffffffffffffffffffffffffffffffff1673ffffffffffffffffffffffffffffffffffffffff1681526020019081526020016000206000016000815480929190613c2b906151e8565b9190505550600b60008273ffffffffffffffffffffffffffffffffffffffff1673ffffffffffffffffffffffffffffffffffffffff1681526020019081526020016000206001018290806001815401808255809150506001900390600052602060002001600090919091909150553373ffffffffffffffffffffffffffffffffffffffff16827f5927e9cc693825f286f7181d772897345cef501932018aa4196ad97926cd542442604051613ce09190615175565b60405180910390a381935050505095945050505050565b613d00816144cf565b50565b6000613d0e33610939565b15613d1c5760019050613d66565b613d253361172b565b15613d335760029050613d66565b613d3c336115ad565b15613d4a5760039050613d66565b613d53336116aa565b15613d615760049050613d66565b600590505b90565b613d7d81600161452990919063ffffffff16565b8073ffffffffffffffffffffffffffffffffffffffff167fe0bf0e8509bb65b00de9afcbc3870546ee37f1442ebfd9fe4211362ceb9dbce360405160405180910390a250565b613dd78160036145d490919063ffffffff16565b8073ffffffffffffffffffffffffffffffffffffffff167f28b26e7a3d20aedbc5f8f2ebf7da671c0491723a2b78f47a097b0e46dee0714260405160405180910390a250565b60008073ffffffffffffffffffffffffffffffffffffffff168273ffffffffffffffffffffffffffffffffffffffff161415613e5857600080fd5b8260000160008373ffffffffffffffffffffffffffffffffffffffff1673ffffffffffffffffffffffffffffffffffffffff16815260200190815260200160002060009054906101000a900460ff16905092915050565b613ec38160036146da90919063ffffffff16565b8073ffffffffffffffffffffffffffffffffffffffff167f32dc543199df7e5ecd26e37915c895ccf94e87339d27cfe42886e67b06070fa960405160405180910390a250565b613f1d8160076146da90919063ffffffff16565b8073ffffffffffffffffffffffffffffffffffffffff167fe1b1b06fc90496227fbac1fb1445a73dc0b50ffe20541bc439caf054e130f2dd60405160405180910390a250565b60005b600b60008373ffffffffffffffffffffffffffffffffffffffff1673ffffffffffffffffffffffffffffffffffffffff1681526020019081526020016000206001018054905081101561414357600b60008373ffffffffffffffffffffffffffffffffffffffff1673ffffffffffffffffffffffffffffffffffffffff1681526020019081526020016000206001018181548110614007576140066154aa565b5b906000526020600020015483141561413057600b60008373ffffffffffffffffffffffffffffffffffffffff1673ffffffffffffffffffffffffffffffffffffffff1681526020019081526020016000206001016001600b60008573ffffffffffffffffffffffffffffffffffffffff1673ffffffffffffffffffffffffffffffffffffffff168152602001908152602001600020600101805490506140ad91906154d9565b815481106140be576140bd6154aa565b5b9060005260206000200154600b60008473ffffffffffffffffffffffffffffffffffffffff1673ffffffffffffffffffffffffffffffffffffffff168152602001908152602001600020600101828154811061411d5761411c6154aa565b5b9060005260206000200181905550614143565b808061413b906151e8565b915050613f66565b50600b60008273ffffffffffffffffffffffffffffffffffffffff1673ffffffffffffffffffffffffffffffffffffffff1681526020019081526020016000206001016001600b60008473ffffffffffffffffffffffffffffffffffffffff1673ffffffffffffffffffffffffffffffffffffffff168152602001908152602001600020600101805490506141d891906154d9565b815481106141e9576141e86154aa565b5b90600052602060002001600090555050565b61420f8160056145d490919063ffffffff16565b8073ffffffffffffffffffffffffffffffffffffffff167f561138658ca49a8540dc70dcfe64c9026c1c5b9344642242dd6562970f9c127860405160405180910390a250565b6142698160076145d490919063ffffffff16565b8073ffffffffffffffffffffffffffffffffffffffff167fddbf200aa634dc3fb81cfd68583dd1040d1c751d335e1d86b631bde3e977fea860405160405180910390a250565b6142c381600361452990919063ffffffff16565b8073ffffffffffffffffffffffffffffffffffffffff167f32be4a8d8826ffe9dc8a86625dc3a215b00e3d5820fcc2d92ff5487356f5cab060405160405180910390a250565b61431d81600761452990919063ffffffff16565b8073ffffffffffffffffffffffffffffffffffffffff167f5ba057f6859f45b8bf9055bb78466867ffa8b7b7b3eac0e39c132390fa15630b60405160405180910390a250565b6143778160016145d490919063ffffffff16565b8073ffffffffffffffffffffffffffffffffffffffff167f71ae26cad02663e3d92efd6ec56031a80d74a20c0ab4183faa8bf262261c9baa60405160405180910390a250565b6143d181600561452990919063ffffffff16565b8073ffffffffffffffffffffffffffffffffffffffff167fd5343fb03455ce242a0f2aa16059f1b1036283c9220e28e631c46f1d6c55f89560405160405180910390a250565b61442b8160056146da90919063ffffffff16565b8073ffffffffffffffffffffffffffffffffffffffff167fb95900c899bdac269b9171170672563471748b1d67c0f84de39892ffe1bb74f560405160405180910390a250565b6000600d6000815480929190614486906151e8565b91905055506304ec38ed4233600d546040516020016144a79392919061550d565b6040516020818303038152906040528051906020012060001c6144ca9190615579565b905090565b6144e38160016146da90919063ffffffff16565b8073ffffffffffffffffffffffffffffffffffffffff167fd624a9d6aede8c855ca1538132c456ef4117d142f2b2b6ab106d1c06356715fd60405160405180910390a250565b600073ffffffffffffffffffffffffffffffffffffffff168173ffffffffffffffffffffffffffffffffffffffff16141561456357600080fd5b61456d8282613e1d565b61457657600080fd5b60018260010160008373ffffffffffffffffffffffffffffffffffffffff1673ffffffffffffffffffffffffffffffffffffffff16815260200190815260200160002060006101000a81548160ff0219169083151502179055505050565b600073ffffffffffffffffffffffffffffffffffffffff168173ffffffffffffffffffffffffffffffffffffffff16141561460e57600080fd5b6146188282613e1d565b1561462257600080fd5b60018260000160008373ffffffffffffffffffffffffffffffffffffffff1673ffffffffffffffffffffffffffffffffffffffff16815260200190815260200160002060006101000a81548160ff02191690831515021790555060008260010160008373ffffffffffffffffffffffffffffffffffffffff1673ffffffffffffffffffffffffffffffffffffffff16815260200190815260200160002060006101000a81548160ff0219169083151502179055505050565b600073ffffffffffffffffffffffffffffffffffffffff168173ffffffffffffffffffffffffffffffffffffffff16141561471457600080fd5b61471e8282613e1d565b61472757600080fd5b60008260010160008373ffffffffffffffffffffffffffffffffffffffff1673ffffffffffffffffffffffffffffffffffffffff16815260200190815260200160002060006101000a81548160ff0219169083151502179055505050565b604051806101e0016040528060008152602001606081526020016060815260200160608152602001600073ffffffffffffffffffffffffffffffffffffffff168152602001600073ffffffffffffffffffffffffffffffffffffffff168152602001600073ffffffffffffffffffffffffffffffffffffffff168152602001600081526020016000151581526020016000151581526020016000151581526020016000815260200160008152602001600081526020016000600c81111561484f5761484e614cc5565b5b81525090565b828054614861906152c9565b90600052602060002090601f01602090048101928261488357600085556148ca565b82601f1061489c57805160ff19168380011785556148ca565b828001600101855582156148ca579182015b828111156148c95782518255916020019190600101906148ae565b5b5090506148d791906148db565b5090565b5b808211156148f45760008160009055506001016148dc565b5090565b6000604051905090565b600080fd5b600080fd5b6000819050919050565b61491f8161490c565b811461492a57600080fd5b50565b60008135905061493c81614916565b92915050565b6000806040838503121561495957614958614902565b5b60006149678582860161492d565b92505060206149788582860161492d565b9150509250929050565b600073ffffffffffffffffffffffffffffffffffffffff82169050919050565b60006149ad82614982565b9050919050565b6149bd816149a2565b81146149c857600080fd5b50565b6000813590506149da816149b4565b92915050565b6000602082840312156149f6576149f5614902565b5b6000614a04848285016149cb565b91505092915050565b60008115159050919050565b614a2281614a0d565b82525050565b6000602082019050614a3d6000830184614a19565b92915050565b6000614a4e82614982565b9050919050565b614a5e81614a43565b8114614a6957600080fd5b50565b600081359050614a7b81614a55565b92915050565b60008060408385031215614a9857614a97614902565b5b6000614aa68582860161492d565b9250506020614ab785828601614a6c565b9150509250929050565b600060208284031215614ad757614ad6614902565b5b6000614ae58482850161492d565b91505092915050565b614af78161490c565b82525050565b600081519050919050565b600082825260208201905092915050565b60005b83811015614b37578082015181840152602081019050614b1c565b83811115614b46576000848401525b50505050565b6000601f19601f8301169050919050565b6000614b6882614afd565b614b728185614b08565b9350614b82818560208601614b19565b614b8b81614b4c565b840191505092915050565b614b9f816149a2565b82525050565b600060e082019050614bba600083018a614aee565b8181036020830152614bcc8189614b5d565b90508181036040830152614be08188614b5d565b9050614bef6060830187614b96565b614bfc6080830186614b96565b614c0960a0830185614aee565b614c1660c0830184614aee565b98975050505050505050565b600081519050919050565b600082825260208201905092915050565b6000819050602082019050919050565b614c578161490c565b82525050565b600082825260208201905092915050565b6000614c7982614afd565b614c838185614c5d565b9350614c93818560208601614b19565b614c9c81614b4c565b840191505092915050565b614cb081614a43565b82525050565b614cbf81614a0d565b82525050565b7f4e487b7100000000000000000000000000000000000000000000000000000000600052602160045260246000fd5b600d8110614d0557614d04614cc5565b5b50565b6000819050614d1682614cf4565b919050565b6000614d2682614d08565b9050919050565b614d3681614d1b565b82525050565b60006101e083016000830151614d556000860182614c4e565b5060208301518482036020860152614d6d8282614c6e565b91505060408301518482036040860152614d878282614c6e565b91505060608301518482036060860152614da18282614c6e565b9150506080830151614db66080860182614ca7565b5060a0830151614dc960a0860182614ca7565b5060c0830151614ddc60c0860182614ca7565b5060e0830151614def60e0860182614c4e565b50610100830151614e04610100860182614cb6565b50610120830151614e19610120860182614cb6565b50610140830151614e2e610140860182614cb6565b50610160830151614e43610160860182614c4e565b50610180830151614e58610180860182614c4e565b506101a0830151614e6d6101a0860182614c4e565b506101c0830151614e826101c0860182614d2d565b508091505092915050565b6000614e998383614d3c565b905092915050565b6000602082019050919050565b6000614eb982614c22565b614ec38185614c2d565b935083602082028501614ed585614c3e565b8060005b85811015614f115784840389528151614ef28582614e8d565b9450614efd83614ea1565b925060208a01995050600181019050614ed9565b50829750879550505050505092915050565b60006020820190508181036000830152614f3d8184614eae565b905092915050565b600080fd5b600080fd5b7f4e487b7100000000000000000000000000000000000000000000000000000000600052604160045260246000fd5b614f8782614b4c565b810181811067ffffffffffffffff82111715614fa657614fa5614f4f565b5b80604052505050565b6000614fb96148f8565b9050614fc58282614f7e565b919050565b600067ffffffffffffffff821115614fe557614fe4614f4f565b5b614fee82614b4c565b9050602081019050919050565b82818337600083830152505050565b600061501d61501884614fca565b614faf565b90508281526020810184848401111561503957615038614f4a565b5b615044848285614ffb565b509392505050565b600082601f83011261506157615060614f45565b5b813561507184826020860161500a565b91505092915050565b61508381614a0d565b811461508e57600080fd5b50565b6000813590506150a08161507a565b92915050565b600080600080600060a086880312156150c2576150c1614902565b5b600086013567ffffffffffffffff8111156150e0576150df614907565b5b6150ec8882890161504c565b955050602086013567ffffffffffffffff81111561510d5761510c614907565b5b6151198882890161504c565b945050604086013567ffffffffffffffff81111561513a57615139614907565b5b6151468882890161504c565b935050606061515788828901615091565b92505060806151688882890161492d565b9150509295509295909350565b600060208201905061518a6000830184614aee565b92915050565b60006040820190506151a56000830185614aee565b6151b26020830184614aee565b9392505050565b7f4e487b7100000000000000000000000000000000000000000000000000000000600052601160045260246000fd5b60006151f38261490c565b91507fffffffffffffffffffffffffffffffffffffffffffffffffffffffffffffffff821415615226576152256151b9565b5b600182019050919050565b6000819050919050565b61524c6152478261490c565b615231565b82525050565b60008160601b9050919050565b600061526a82615252565b9050919050565b600061527c8261525f565b9050919050565b61529461528f82614a43565b615271565b82525050565b7f4e487b7100000000000000000000000000000000000000000000000000000000600052602260045260246000fd5b600060028204905060018216806152e157607f821691505b602082108114156152f5576152f461529a565b5b50919050565b600081905092915050565b60008190508160005260206000209050919050565b60008154615328816152c9565b61533281866152fb565b9450600182166000811461534d576001811461535e57615391565b60ff19831686528186019350615391565b61536785615306565b60005b838110156153895781548189015260018201915060208101905061536a565b838801955050505b50505092915050565b60006153a6828761523b565b6020820191506153b68286615283565b6014820191506153c68285615283565b6014820191506153d6828461531b565b915081905095945050505050565b60006153ef8261525f565b9050919050565b615407615402826149a2565b6153e4565b82525050565b6000615419828761523b565b6020820191506154298286615283565b60148201915061543982856153f6565b601482019150615449828461531b565b915081905095945050505050565b60006154628261490c565b91506000821415615476576154756151b9565b5b600182039050919050565b60006040820190506154966000830185614aee565b6154a36020830184614b96565b9392505050565b7f4e487b7100000000000000000000000000000000000000000000000000000000600052603260045260246000fd5b60006154e48261490c565b91506154ef8361490c565b925082821015615502576155016151b9565b5b828203905092915050565b6000615519828661523b565b60208201915061552982856153f6565b601482019150615539828461523b565b602082019150819050949350505050565b7f4e487b7100000000000000000000000000000000000000000000000000000000600052601260045260246000fd5b60006155848261490c565b915061558f8361490c565b92508261559f5761559e61554a565b5b82820690509291505056fea264697066735822122061ea1c962d40b59280bc282f6b5fd3de1e37b1b310d7ceb64aba9c073cee536d64736f6c634300080b0033",
  "immutableReferences": {},
  "source": "pragma solidity >=0.4.24;\r\n\r\n//contracts\r\nimport \"./Consumer.sol\";\r\nimport \"./Distributor.sol\";\r\nimport \"./Manufacturer.sol\";\r\nimport \"./Retailer.sol\";\r\n\r\ncontract SupplyChain is Retailer, Consumer, Manufacturer, Distributor {\r\n    uint256[] composite;\r\n    mapping(uint256 => Item) items;\r\n    mapping(address => totalItems) ownership;\r\n    mapping(address => totalItems) shipped;\r\n    //mapping(uint256 => composite) mappingComposite;\r\n\r\n    uint256 randNonce = 0;\r\n\r\n    function randMod() internal returns (uint256) {\r\n        randNonce++;\r\n        return\r\n            uint256(\r\n                keccak256(\r\n                    abi.encodePacked(block.timestamp, msg.sender, randNonce)\r\n                )\r\n            ) % 82589933;\r\n    }\r\n\r\n    function deleteItem(uint256 _uin, address x) internal {\r\n        for (uint256 i = 0; i < ownership[x].itemUin.length; i++) {\r\n            if (_uin == ownership[x].itemUin[i]) {\r\n                ownership[x].itemUin[i] = ownership[x].itemUin[\r\n                    ownership[x].itemUin.length - 1\r\n                ];\r\n                break;\r\n            }\r\n        }\r\n        delete ownership[x].itemUin[ownership[x].itemUin.length - 1];\r\n    }\r\n\r\n    enum State {\r\n        SProducedByManufacturer, //0\r\n        SForSaleByManufacturer, //1\r\n        SShippedByManufacturer, //2\r\n        SReceivedByDistributor, //3\r\n        SForSaleByDistributor, //4\r\n        SShippedByDistributor, //5\r\n        SReceivedByRetailer, //6\r\n        SForSaleByRetailer, //7\r\n        SShippedByRetailer, //8\r\n        SReceivedByCustomer, //9\r\n        SCollectibleForSaleByCustomer, //10\r\n        SShippedByCustomer, //11\r\n        SReceivedCollectibleByCustomer //12\r\n    }\r\n\r\n    State constant defaultState = State.SProducedByManufacturer;\r\n\r\n    struct totalItems {\r\n        uint256 count;\r\n        uint256[] itemUin;\r\n    }\r\n\r\n    struct Item {\r\n        uint256 uin;\r\n        string productName;\r\n        string productType;\r\n        string productDescription;\r\n        address payable manufacturerId;\r\n        address payable CurrentOwner;\r\n        address payable ShipTo;\r\n        uint256 productDate;\r\n        bool collectible;\r\n        bool composite;\r\n        bool visibility;\r\n        uint256 weight;\r\n        uint256 productPrice;\r\n        uint256 productHash;\r\n        State productState;\r\n    }\r\n\r\n    //Events\r\n\r\n    event EProducedByManufacturer(\r\n        uint256 indexed uin,\r\n        uint256 x,\r\n        address indexed y\r\n    );\r\n    event EForSaleByManufacturer(\r\n        uint256 indexed uin,\r\n        uint256 x,\r\n        address indexed y,\r\n        uint256 z\r\n    );\r\n    event EShippedByManufacturer(\r\n        uint256 indexed uin,\r\n        uint256 x,\r\n        address indexed y,\r\n        address indexed z\r\n    );\r\n    event EReceivedByDistributor(\r\n        uint256 indexed uin,\r\n        uint256 x,\r\n        address indexed y\r\n    );\r\n    event EForSaleByDistributor(\r\n        uint256 indexed uin,\r\n        uint256 x,\r\n        address indexed y,\r\n        uint256 z\r\n    );\r\n    event EShippedByDistributor(\r\n        uint256 indexed uin,\r\n        uint256 x,\r\n        address indexed y,\r\n        address indexed z\r\n    );\r\n    event EReceivedByRetailer(uint256 indexed uin, uint256 x, address y);\r\n    event EForSaleByRetailer(\r\n        uint256 indexed uin,\r\n        uint256 x,\r\n        address indexed y,\r\n        uint256 z\r\n    );\r\n    event EShippedByRetailer(\r\n        uint256 indexed uin,\r\n        uint256 x,\r\n        address indexed y,\r\n        address indexed z\r\n    );\r\n    event EReceivedByCustomer(uint256 indexed uin, uint256 x, address y);\r\n    event ECollectibleForSaleByCustomer(\r\n        uint256 indexed uin,\r\n        uint256 x,\r\n        address indexed y,\r\n        uint256 z\r\n    );\r\n    event EShippedtheCollectibleByCustomer(\r\n        uint256 indexed uin,\r\n        uint256 x,\r\n        address indexed y,\r\n        address indexed z\r\n    );\r\n    event EReceivedCollectibleByCustomer(\r\n        uint256 indexed uin,\r\n        uint256 x,\r\n        address indexed y\r\n    );\r\n\r\n    //Is Amount Equal\r\n    modifier paidEnough(uint256 _price) {\r\n        require(msg.value >= _price);\r\n        _;\r\n    }\r\n\r\n    //Return Extra value\r\n    modifier checkValue(uint256 _upc, address payable addressToFund) {\r\n        uint256 _price = items[_upc].productPrice;\r\n        uint256 amountToReturn = msg.value - _price;\r\n        addressToFund.transfer(amountToReturn);\r\n        _;\r\n    }\r\n\r\n    //Item State Modifiers\r\n    modifier MProducedByManufacturer(uint256 _uin) {\r\n        require(items[_uin].productState == State.SProducedByManufacturer);\r\n        _;\r\n    }\r\n\r\n    modifier MForSaleByManufacturer(uint256 _uin) {\r\n        require(items[_uin].productState == State.SForSaleByManufacturer);\r\n        _;\r\n    }\r\n\r\n    modifier MReceivedByDistributor(uint256 _uin) {\r\n        require(items[_uin].productState == State.SReceivedByDistributor);\r\n        _;\r\n    }\r\n\r\n    modifier MShippedByManufacturer(uint256 _uin) {\r\n        require(items[_uin].productState == State.SShippedByManufacturer);\r\n        _;\r\n    }\r\n\r\n    modifier MForSaleByDistributor(uint256 _uin) {\r\n        require(items[_uin].productState == State.SForSaleByDistributor);\r\n        _;\r\n    }\r\n\r\n    modifier MShippedByDistributor(uint256 _uin) {\r\n        require(items[_uin].productState == State.SShippedByDistributor);\r\n        _;\r\n    }\r\n\r\n    modifier MReceivedByRetailer(uint256 _uin) {\r\n        require(items[_uin].productState == State.SReceivedByRetailer);\r\n        _;\r\n    }\r\n\r\n    modifier MForSaleByRetailer(uint256 _uin) {\r\n        require(items[_uin].productState == State.SForSaleByRetailer);\r\n        _;\r\n    }\r\n\r\n    modifier MShippedByRetailer(uint256 _uin) {\r\n        require(items[_uin].productState == State.SShippedByRetailer);\r\n        _;\r\n    }\r\n\r\n    modifier MReceivedByCustomer(uint256 _uin) {\r\n        require(items[_uin].productState == State.SReceivedByCustomer);\r\n        _;\r\n    }\r\n\r\n    modifier MCollectibleForSaleByCustomer(uint256 _uin) {\r\n        require(\r\n            items[_uin].productState == State.SCollectibleForSaleByCustomer\r\n        );\r\n        _;\r\n    }\r\n\r\n    modifier MShippedCollectibleByCustomer(uint256 _uin) {\r\n        require(items[_uin].productState == State.SShippedByCustomer);\r\n        _;\r\n    }\r\n\r\n    modifier MReceivedCollectibleByCustomer(uint256 _uin) {\r\n        require(\r\n            items[_uin].productState == State.SReceivedCollectibleByCustomer\r\n        );\r\n        _;\r\n    }\r\n\r\n    modifier MisCollectible(uint256 _uin) {\r\n        require(items[_uin].collectible == true);\r\n        _;\r\n    }\r\n\r\n    modifier MVerifyCaller(uint256 _uin) {\r\n        require(\r\n            items[_uin].productHash ==\r\n                uint256(\r\n                    keccak256(\r\n                        abi.encodePacked(\r\n                            _uin,\r\n                            items[_uin].CurrentOwner,\r\n                            msg.sender,\r\n                            items[_uin].productName\r\n                        )\r\n                    )\r\n                )\r\n        );\r\n        _;\r\n    }\r\n\r\n    function getEntity() public view returns (uint256) {\r\n        if (isManufacturer(msg.sender)) {\r\n            return 1;\r\n        } else if (isDistributor(msg.sender)) {\r\n            return 2;\r\n        } else if (isRetailer(msg.sender)) {\r\n            return 3;\r\n        } else if (isConsumer(msg.sender)) {\r\n            return 4;\r\n        } else {\r\n            return 5;\r\n        }\r\n    }\r\n\r\n    // Step1\r\n    function producebymanufacturer(\r\n        string memory _ProductName,\r\n        string memory _ProductDesc,\r\n        string memory _ProductType,\r\n        bool _collectible,\r\n        uint256 weight\r\n    ) public onlyManufacturer(msg.sender) returns (uint256) {\r\n        uint256 uin = randMod();\r\n        address payable manufacturer = payable(msg.sender);\r\n        items[uin] = Item(\r\n            uin,\r\n            _ProductName,\r\n            _ProductType,\r\n            _ProductDesc,\r\n            manufacturer,\r\n            manufacturer,\r\n            payable(address(0)),\r\n            block.timestamp,\r\n            _collectible,\r\n            false,\r\n            false,\r\n            weight,\r\n            0,\r\n            0,\r\n            defaultState\r\n        );\r\n        ownership[manufacturer].count++;\r\n        ownership[manufacturer].itemUin.push(uin);\r\n        emit EProducedByManufacturer(uin, block.timestamp, msg.sender);\r\n        return (uin);\r\n    }\r\n\r\n    //Step2\r\n    function forsalebymanufacturer(uint256 uin, uint256 price)\r\n        public\r\n        onlyManufacturer(msg.sender)\r\n        MProducedByManufacturer(uin)\r\n    {\r\n        items[uin].visibility = true;\r\n        items[uin].productState = State.SForSaleByManufacturer;\r\n        items[uin].productPrice = price;\r\n        emit EForSaleByManufacturer(uin, block.timestamp, msg.sender, price);\r\n    }\r\n\r\n    //Step3\r\n\r\n    function shippedbymanufacturer(uint256 uin, address payable shipTo)\r\n        public\r\n        onlyManufacturer(msg.sender)\r\n        onlyDistributor(shipTo)\r\n        MForSaleByManufacturer(uin)\r\n    {\r\n        items[uin].productState = State.SShippedByManufacturer;\r\n        items[uin].ShipTo = shipTo;\r\n        shipped[shipTo].count++;\r\n        shipped[shipTo].itemUin.push(uin);\r\n        items[uin].productHash = uint256(\r\n            keccak256(\r\n                abi.encodePacked(\r\n                    uin,\r\n                    items[uin].CurrentOwner,\r\n                    shipTo,\r\n                    items[uin].productName\r\n                )\r\n            )\r\n        );\r\n        emit EShippedByManufacturer(uin, block.timestamp, msg.sender, shipTo);\r\n    }\r\n\r\n    //Step4\r\n\r\n    function receivedbydistributor(uint256 uin)\r\n        public\r\n        payable\r\n        onlyDistributor(msg.sender)\r\n        paidEnough(items[uin].productPrice)\r\n        MShippedByManufacturer(uin)\r\n        MVerifyCaller(uin)\r\n    //checkValue(items[uin].productPrice, payable(msg.sender))\r\n    {\r\n        items[uin].productState = State.SReceivedByDistributor;\r\n        items[uin].visibility = false;\r\n        items[uin].CurrentOwner.transfer(items[uin].productPrice);\r\n        deleteItem(uin, items[uin].CurrentOwner);\r\n        ownership[items[uin].CurrentOwner].count--;\r\n        items[uin].CurrentOwner = payable(msg.sender);\r\n        items[uin].productPrice = 0;\r\n        ownership[msg.sender].count++;\r\n        ownership[msg.sender].itemUin.push(uin);\r\n        emit EReceivedByDistributor(uin, block.timestamp, msg.sender);\r\n    }\r\n\r\n    //Step5\r\n    function forsalebydistributor(uint256 uin, uint256 price)\r\n        public\r\n        onlyDistributor(msg.sender)\r\n        MReceivedByDistributor(uin)\r\n    {\r\n        items[uin].visibility = true;\r\n        items[uin].productState = State.SForSaleByDistributor;\r\n        items[uin].productPrice = price;\r\n        emit EForSaleByDistributor(uin, block.timestamp, msg.sender, price);\r\n    }\r\n\r\n    //Step6\r\n    function shippedbydistributor(uint256 uin, address payable shipTo)\r\n        public\r\n        onlyDistributor(msg.sender)\r\n        onlyRetailer(shipTo)\r\n        MForSaleByDistributor(uin)\r\n    {\r\n        items[uin].productState = State.SShippedByDistributor;\r\n        items[uin].ShipTo = shipTo;\r\n        shipped[shipTo].count++;\r\n        shipped[shipTo].itemUin.push(uin);\r\n        items[uin].productHash = uint256(\r\n            keccak256(\r\n                abi.encodePacked(\r\n                    uin,\r\n                    items[uin].CurrentOwner,\r\n                    shipTo,\r\n                    items[uin].productName\r\n                )\r\n            )\r\n        );\r\n        emit EShippedByDistributor(uin, block.timestamp, msg.sender, shipTo);\r\n    }\r\n\r\n    //Step7\r\n    function receivedbyretailer(uint256 uin)\r\n        public\r\n        payable\r\n        onlyRetailer(msg.sender)\r\n        paidEnough(items[uin].productPrice)\r\n        MShippedByDistributor(uin)\r\n        MVerifyCaller(uin)\r\n    {\r\n        items[uin].productState = State.SReceivedByRetailer;\r\n        items[uin].visibility = false;\r\n        items[uin].CurrentOwner.transfer(items[uin].productPrice);\r\n        ownership[items[uin].CurrentOwner].count--;\r\n        deleteItem(uin, items[uin].CurrentOwner);\r\n        items[uin].CurrentOwner = payable(msg.sender);\r\n        items[uin].productPrice = 0;\r\n        ownership[msg.sender].count++;\r\n        ownership[msg.sender].itemUin.push(uin);\r\n        emit EReceivedByRetailer(uin, block.timestamp, msg.sender);\r\n    }\r\n\r\n    //Step8\r\n    function forsalebyretailer(uint256 uin, uint256 price)\r\n        public\r\n        onlyRetailer(msg.sender)\r\n        MReceivedByRetailer(uin)\r\n    {\r\n        items[uin].productState = State.SForSaleByRetailer;\r\n        items[uin].productPrice = price;\r\n        emit EForSaleByRetailer(uin, block.timestamp, msg.sender, price);\r\n    }\r\n\r\n    //Step9\r\n    function shippedbyretailer(uint256 uin, address payable shipTo)\r\n        public\r\n        onlyRetailer(msg.sender)\r\n        onlyConsumer(shipTo)\r\n        MForSaleByRetailer(uin)\r\n    {\r\n        items[uin].productState = State.SShippedByRetailer;\r\n        items[uin].ShipTo = shipTo;\r\n        shipped[shipTo].count++;\r\n        shipped[shipTo].itemUin.push(uin);\r\n        items[uin].productHash = uint256(\r\n            keccak256(\r\n                abi.encodePacked(\r\n                    uin,\r\n                    items[uin].CurrentOwner,\r\n                    shipTo,\r\n                    items[uin].productName\r\n                )\r\n            )\r\n        );\r\n        emit EShippedByRetailer(uin, block.timestamp, msg.sender, shipTo);\r\n    }\r\n\r\n    //Step10\r\n    function receivedbycustomer(uint256 uin)\r\n        public\r\n        payable\r\n        onlyConsumer(payable(msg.sender))\r\n        paidEnough(items[uin].productPrice)\r\n        MShippedByRetailer(uin)\r\n        MVerifyCaller(uin)\r\n    {\r\n        items[uin].productState = State.SReceivedByCustomer;\r\n        items[uin].visibility = false;\r\n        items[uin].CurrentOwner.transfer(items[uin].productPrice);\r\n        ownership[items[uin].CurrentOwner].count--;\r\n        deleteItem(uin, items[uin].CurrentOwner);\r\n        items[uin].CurrentOwner = payable(msg.sender);\r\n        items[uin].productPrice = 0;\r\n        ownership[msg.sender].count++;\r\n        ownership[msg.sender].itemUin.push(uin);\r\n        emit EReceivedByCustomer(uin, block.timestamp, msg.sender);\r\n    }\r\n\r\n    //Step11\r\n    function collectibleforsalebycustomer(uint256 uin, uint256 price)\r\n        public\r\n        onlyConsumer(payable(msg.sender))\r\n        MReceivedByCustomer(uin)\r\n        MisCollectible(uin)\r\n    {\r\n        items[uin].productState = State.SCollectibleForSaleByCustomer;\r\n        items[uin].productPrice = price;\r\n        items[uin].visibility = true;\r\n        emit ECollectibleForSaleByCustomer(\r\n            uin,\r\n            block.timestamp,\r\n            msg.sender,\r\n            price\r\n        );\r\n    }\r\n\r\n    //Step12\r\n    function shippedcollectiblebycustomer(uint256 uin, address payable ShipTo)\r\n        public\r\n        onlyConsumer(payable(msg.sender))\r\n        onlyConsumer(ShipTo)\r\n        MCollectibleForSaleByCustomer(uin)\r\n    {\r\n        items[uin].productState = State.SShippedByCustomer;\r\n        items[uin].ShipTo = ShipTo;\r\n        shipped[ShipTo].count++;\r\n        shipped[ShipTo].itemUin.push(uin);\r\n        items[uin].productHash = uint256(\r\n            keccak256(\r\n                abi.encodePacked(\r\n                    uin,\r\n                    items[uin].CurrentOwner,\r\n                    ShipTo,\r\n                    items[uin].productName\r\n                )\r\n            )\r\n        );\r\n        emit EShippedtheCollectibleByCustomer(\r\n            uin,\r\n            block.timestamp,\r\n            msg.sender,\r\n            ShipTo\r\n        );\r\n    }\r\n\r\n    //Step13\r\n\r\n    function receivedcollectiblebycustomer(uint256 uin)\r\n        public\r\n        payable\r\n        onlyConsumer(payable(msg.sender))\r\n        MisCollectible(uin)\r\n        paidEnough(items[uin].productPrice)\r\n        MShippedCollectibleByCustomer(uin)\r\n        MVerifyCaller(uin)\r\n    {\r\n        items[uin].productState = State.SReceivedCollectibleByCustomer;\r\n        items[uin].visibility = false;\r\n        items[uin].CurrentOwner.transfer(items[uin].productPrice);\r\n        ownership[items[uin].CurrentOwner].count--;\r\n        deleteItem(uin, items[uin].CurrentOwner);\r\n        items[uin].CurrentOwner = payable(msg.sender);\r\n        items[uin].productPrice = 0;\r\n        ownership[msg.sender].count++;\r\n        ownership[msg.sender].itemUin.push(uin);\r\n        emit EReceivedCollectibleByCustomer(uin, block.timestamp, msg.sender);\r\n    }\r\n\r\n    //Step 14\r\n    function productDetail(uint256 uin)\r\n        public\r\n        view\r\n        returns (\r\n            uint256,\r\n            string memory,\r\n            string memory,\r\n            address,\r\n            address,\r\n            uint256,\r\n            uint256\r\n        )\r\n    {\r\n        return (\r\n            items[uin].uin,\r\n            items[uin].productName,\r\n            items[uin].productDescription,\r\n            items[uin].manufacturerId,\r\n            items[uin].CurrentOwner,\r\n            items[uin].productDate,\r\n            items[uin].productPrice\r\n        );\r\n    }\r\n\r\n    function x(address z) public view returns (Item[] memory) {\r\n        Item[] memory item = new Item[](ownership[z].itemUin.length);\r\n        for (uint256 i = 0; i < ownership[z].itemUin.length; i++) {\r\n            Item storage x = items[ownership[z].itemUin[i]];\r\n            item[i] = x;\r\n        }\r\n        return item;\r\n    }\r\n\r\n    function y(address z) public view returns (Item[] memory) {\r\n        Item[] memory item = new Item[](shipped[z].itemUin.length);\r\n        for (uint256 i = 0; i < shipped[z].itemUin.length; i++) {\r\n            Item storage x = items[shipped[z].itemUin[i]];\r\n            item[i] = x;\r\n        }\r\n        return item;\r\n    }\r\n}\r\n",
  "sourcePath": "C:\\Users\\Dell\\Desktop\\Contracts\\project\\truffle\\contracts\\SupplyChain.sol",
  "compiler": {
    "name": "solc",
    "version": "0.8.11+commit.d7f03943.Emscripten.clang"
  },
  "schemaVersion": "3.4.5",
  "updatedAt": "2022-03-15T09:29:06.743Z",
  "networkType": "ethereum",
  "devdoc": {
    "kind": "dev",
    "methods": {},
    "version": 1
  },
  "userdoc": {
    "kind": "user",
    "methods": {},
    "version": 1
  }
}